{
  "contractName": "NIDAdmin",
  "abi": [
    {
      "inputs": [],
      "payable": false,
      "stateMutability": "nonpayable",
      "type": "constructor"
    },
    {
      "anonymous": false,
      "inputs": [
        {
          "indexed": true,
          "internalType": "contract NIDOrg",
          "name": "org",
          "type": "address"
        },
        {
          "indexed": true,
          "internalType": "address",
          "name": "account",
          "type": "address"
        }
      ],
      "name": "OrgCreated",
      "type": "event"
    },
    {
      "anonymous": false,
      "inputs": [
        {
          "indexed": true,
          "internalType": "contract NIDOrg",
          "name": "org",
          "type": "address"
        },
        {
          "indexed": true,
          "internalType": "address",
          "name": "account",
          "type": "address"
        }
      ],
      "name": "OrgDeleted",
      "type": "event"
    },
    {
      "anonymous": false,
      "inputs": [
        {
          "indexed": true,
          "internalType": "uint256",
          "name": "reqType",
          "type": "uint256"
        },
        {
          "indexed": true,
          "internalType": "string",
          "name": "orgName",
          "type": "string"
        },
        {
          "indexed": true,
          "internalType": "address",
          "name": "account",
          "type": "address"
        }
      ],
      "name": "OrgRequestApproved",
      "type": "event"
    },
    {
      "anonymous": false,
      "inputs": [
        {
          "indexed": true,
          "internalType": "uint256",
          "name": "reqType",
          "type": "uint256"
        },
        {
          "indexed": true,
          "internalType": "string",
          "name": "orgName",
          "type": "string"
        },
        {
          "indexed": true,
          "internalType": "address",
          "name": "account",
          "type": "address"
        }
      ],
      "name": "OrgRequestRejected",
      "type": "event"
    },
    {
      "anonymous": false,
      "inputs": [
        {
          "indexed": true,
          "internalType": "uint256",
          "name": "reqType",
          "type": "uint256"
        },
        {
          "indexed": true,
          "internalType": "string",
          "name": "orgName",
          "type": "string"
        },
        {
          "indexed": true,
          "internalType": "address",
          "name": "account",
          "type": "address"
        }
      ],
      "name": "OrgRequestSubmitted",
      "type": "event"
    },
    {
      "anonymous": false,
      "inputs": [
        {
          "indexed": true,
          "internalType": "contract NIDOrg",
          "name": "org",
          "type": "address"
        },
        {
          "indexed": true,
          "internalType": "address",
          "name": "account",
          "type": "address"
        }
      ],
      "name": "OrgUpdated",
      "type": "event"
    },
    {
      "anonymous": false,
      "inputs": [
        {
          "indexed": true,
          "internalType": "address",
          "name": "previousOwner",
          "type": "address"
        },
        {
          "indexed": true,
          "internalType": "address",
          "name": "newOwner",
          "type": "address"
        }
      ],
      "name": "OwnershipTransferred",
      "type": "event"
    },
    {
      "constant": true,
      "inputs": [],
      "name": "isOwner",
      "outputs": [
        {
          "internalType": "bool",
          "name": "",
          "type": "bool"
        }
      ],
      "payable": false,
      "stateMutability": "view",
      "type": "function"
    },
    {
      "constant": true,
      "inputs": [],
      "name": "owner",
      "outputs": [
        {
          "internalType": "address",
          "name": "",
          "type": "address"
        }
      ],
      "payable": false,
      "stateMutability": "view",
      "type": "function"
    },
    {
      "constant": false,
      "inputs": [],
      "name": "renounceOwnership",
      "outputs": [],
      "payable": false,
      "stateMutability": "nonpayable",
      "type": "function"
    },
    {
      "constant": false,
      "inputs": [
        {
          "internalType": "address",
          "name": "newOwner",
          "type": "address"
        }
      ],
      "name": "transferOwnership",
      "outputs": [],
      "payable": false,
      "stateMutability": "nonpayable",
      "type": "function"
    },
    {
      "constant": true,
      "inputs": [
        {
          "internalType": "address",
          "name": "x",
          "type": "address"
        }
      ],
      "name": "toBytes",
      "outputs": [
        {
          "internalType": "bytes20",
          "name": "",
          "type": "bytes20"
        }
      ],
      "payable": false,
      "stateMutability": "pure",
      "type": "function"
    },
    {
      "constant": false,
      "inputs": [
        {
          "internalType": "uint256",
          "name": "_reqType",
          "type": "uint256"
        },
        {
          "internalType": "string",
          "name": "_name",
          "type": "string"
        },
        {
          "internalType": "string",
          "name": "_admin",
          "type": "string"
        },
        {
          "internalType": "string",
          "name": "_phone",
          "type": "string"
        },
        {
          "internalType": "string",
          "name": "_mail",
          "type": "string"
        }
      ],
      "name": "createOrgRequest",
      "outputs": [],
      "payable": false,
      "stateMutability": "nonpayable",
      "type": "function"
    },
    {
      "constant": true,
      "inputs": [
        {
          "internalType": "bytes20",
          "name": "id",
          "type": "bytes20"
        }
      ],
      "name": "requestDetailQuery",
      "outputs": [
        {
          "internalType": "uint256",
          "name": "reqType",
          "type": "uint256"
        },
        {
          "internalType": "string",
          "name": "name",
          "type": "string"
        },
        {
          "internalType": "string",
          "name": "admin",
          "type": "string"
        },
        {
          "internalType": "string",
          "name": "phone",
          "type": "string"
        },
        {
          "internalType": "string",
          "name": "mail",
          "type": "string"
        }
      ],
      "payable": false,
      "stateMutability": "view",
      "type": "function"
    },
    {
      "constant": true,
      "inputs": [],
      "name": "requestIdsQuery",
      "outputs": [
        {
          "internalType": "bytes20[]",
          "name": "ids",
          "type": "bytes20[]"
        }
      ],
      "payable": false,
      "stateMutability": "view",
      "type": "function"
    },
    {
      "constant": true,
      "inputs": [],
      "name": "requestCount",
      "outputs": [
        {
          "internalType": "uint256",
          "name": "",
          "type": "uint256"
        }
      ],
      "payable": false,
      "stateMutability": "view",
      "type": "function"
    },
    {
      "constant": true,
      "inputs": [],
      "name": "orgQuery",
      "outputs": [
        {
          "internalType": "contract NIDOrg[]",
          "name": "",
          "type": "address[]"
        }
      ],
      "payable": false,
      "stateMutability": "view",
      "type": "function"
    },
    {
      "constant": true,
      "inputs": [],
      "name": "orgCount",
      "outputs": [
        {
          "internalType": "uint256",
          "name": "",
          "type": "uint256"
        }
      ],
      "payable": false,
      "stateMutability": "view",
      "type": "function"
    },
    {
      "constant": false,
      "inputs": [
        {
          "internalType": "bytes20",
          "name": "id",
          "type": "bytes20"
        }
      ],
      "name": "requestApprove",
      "outputs": [],
      "payable": false,
      "stateMutability": "nonpayable",
      "type": "function"
    },
    {
      "constant": false,
      "inputs": [
        {
          "internalType": "bytes20",
          "name": "id",
          "type": "bytes20"
        }
      ],
      "name": "requestReject",
      "outputs": [],
      "payable": false,
      "stateMutability": "nonpayable",
      "type": "function"
    }
  ],
  "bytecode": "0x60806040523480156200001157600080fd5b5062000022620000f460201b60201c565b6000806101000a81548173ffffffffffffffffffffffffffffffffffffffff021916908373ffffffffffffffffffffffffffffffffffffffff1602179055506000809054906101000a900473ffffffffffffffffffffffffffffffffffffffff1673ffffffffffffffffffffffffffffffffffffffff16600073ffffffffffffffffffffffffffffffffffffffff167f8be0079c531659141344cd1fd0a4f28419497f9722a3daafe3b4186f6b6457e060405160405180910390a3620000ee33620000fc60201b60201c565b62000242565b600033905090565b600073ffffffffffffffffffffffffffffffffffffffff168173ffffffffffffffffffffffffffffffffffffffff16141562000184576040517f08c379a0000000000000000000000000000000000000000000000000000000008152600401808060200182810382526026815260200180620043c26026913960400191505060405180910390fd5b8073ffffffffffffffffffffffffffffffffffffffff166000809054906101000a900473ffffffffffffffffffffffffffffffffffffffff1673ffffffffffffffffffffffffffffffffffffffff167f8be0079c531659141344cd1fd0a4f28419497f9722a3daafe3b4186f6b6457e060405160405180910390a3806000806101000a81548173ffffffffffffffffffffffffffffffffffffffff021916908373ffffffffffffffffffffffffffffffffffffffff16021790555050565b61417080620002526000396000f3fe60806040523480156200001157600080fd5b5060043610620000e25760003560e01c806368829a3311620000995780638f32d59b116200006f5780638f32d59b14620005b7578063d810669014620005db578063f2fde38b14620005fb578063f79e6d27146200064257620000e2565b806368829a33146200051f578063715018a6146200055f5780638da5cb5b146200056b57620000e2565b80630274c7d014620000e757806314c68b1314620003805780631dde4aa614620003e3578063276a8f311462000446578063593b79fe14620004865780635badbe4c14620004ff575b600080fd5b6200037e600480360360a0811015620000ff57600080fd5b8101908080359060200190929190803590602001906401000000008111156200012757600080fd5b8201836020820111156200013a57600080fd5b803590602001918460018302840111640100000000831117156200015d57600080fd5b91908080601f016020809104026020016040519081016040528093929190818152602001838380828437600081840152601f19601f82011690508083019250505050505050919291929080359060200190640100000000811115620001c157600080fd5b820183602082011115620001d457600080fd5b80359060200191846001830284011164010000000083111715620001f757600080fd5b91908080601f016020809104026020016040519081016040528093929190818152602001838380828437600081840152601f19601f820116905080830192505050505050509192919290803590602001906401000000008111156200025b57600080fd5b8201836020820111156200026e57600080fd5b803590602001918460018302840111640100000000831117156200029157600080fd5b91908080601f016020809104026020016040519081016040528093929190818152602001838380828437600081840152601f19601f82011690508083019250505050505050919291929080359060200190640100000000811115620002f557600080fd5b8201836020820111156200030857600080fd5b803590602001918460018302840111640100000000831117156200032b57600080fd5b91908080601f016020809104026020016040519081016040528093929190818152602001838380828437600081840152601f19601f82011690508083019250505050505050919291929050505062000852565b005b6200038a62000c53565b6040518080602001828103825283818151815260200191508051906020019060200280838360005b83811015620003cf578082015181840152602081019050620003b2565b505050509050019250505060405180910390f35b620003ed62000d1a565b6040518080602001828103825283818151815260200191508051906020019060200280838360005b838110156200043257808201518184015260208101905062000415565b505050509050019250505060405180910390f35b62000484600480360360208110156200045e57600080fd5b8101908080356bffffffffffffffffffffffff1916906020019092919050505062000daa565b005b620004cb600480360360208110156200049e57600080fd5b81019080803573ffffffffffffffffffffffffffffffffffffffff16906020019092919050505062001665565b60405180826bffffffffffffffffffffffff19166bffffffffffffffffffffffff1916815260200191505060405180910390f35b62000509620016fe565b6040518082815260200191505060405180910390f35b6200055d600480360360208110156200053757600080fd5b8101908080356bffffffffffffffffffffffff191690602001909291905050506200170b565b005b6200056962001bba565b005b6200057562001cf6565b604051808273ffffffffffffffffffffffffffffffffffffffff1673ffffffffffffffffffffffffffffffffffffffff16815260200191505060405180910390f35b620005c162001d1f565b604051808215151515815260200191505060405180910390f35b620005e562001d7f565b6040518082815260200191505060405180910390f35b62000640600480360360208110156200061357600080fd5b81019080803573ffffffffffffffffffffffffffffffffffffffff16906020019092919050505062001d8c565b005b62000680600480360360208110156200065a57600080fd5b8101908080356bffffffffffffffffffffffff1916906020019092919050505062001e17565b6040518086815260200180602001806020018060200180602001858103855289818151815260200191508051906020019080838360005b83811015620006d4578082015181840152602081019050620006b7565b50505050905090810190601f168015620007025780820380516001836020036101000a031916815260200191505b50858103845288818151815260200191508051906020019080838360005b838110156200073d57808201518184015260208101905062000720565b50505050905090810190601f1680156200076b5780820380516001836020036101000a031916815260200191505b50858103835287818151815260200191508051906020019080838360005b83811015620007a657808201518184015260208101905062000789565b50505050905090810190601f168015620007d45780820380516001836020036101000a031916815260200191505b50858103825286818151815260200191508051906020019080838360005b838110156200080f578082015181840152602081019050620007f2565b50505050905090810190601f1680156200083d5780820380516001836020036101000a031916815260200191505b50995050505050505050505060405180910390f35b60006200085f3362001665565b90506200086b62002849565b6040518060e001604052803373ffffffffffffffffffffffffffffffffffffffff168152602001836bffffffffffffffffffffffff19168152602001888152602001878152602001868152602001858152602001848152509050600080905060008090505b60018054905081101562000a6857836bffffffffffffffffffffffff191660018281548110620008fc57fe5b906000526020600020906007020160010160009054906101000a900460601b6bffffffffffffffffffffffff1916141562000a5c5782600182815481106200094057fe5b906000526020600020906007020160008201518160000160006101000a81548173ffffffffffffffffffffffffffffffffffffffff021916908373ffffffffffffffffffffffffffffffffffffffff16021790555060208201518160010160006101000a81548173ffffffffffffffffffffffffffffffffffffffff021916908360601c0217905550604082015181600201556060820151816003019080519060200190620009f1929190620028ab565b50608082015181600401908051906020019062000a10929190620028ab565b5060a082015181600501908051906020019062000a2f929190620028ab565b5060c082015181600601908051906020019062000a4e929190620028ab565b509050506001915062000a68565b806001019050620008d0565b508062000ba2576001829080600181540180825580915050906001820390600052602060002090600702016000909192909190915060008201518160000160006101000a81548173ffffffffffffffffffffffffffffffffffffffff021916908373ffffffffffffffffffffffffffffffffffffffff16021790555060208201518160010160006101000a81548173ffffffffffffffffffffffffffffffffffffffff021916908360601c021790555060408201518160020155606082015181600301908051906020019062000b40929190620028ab565b50608082015181600401908051906020019062000b5f929190620028ab565b5060a082015181600501908051906020019062000b7e929190620028ab565b5060c082015181600601908051906020019062000b9d929190620028ab565b505050505b3373ffffffffffffffffffffffffffffffffffffffff16876040518082805190602001908083835b6020831062000bef578051825260208201915060208101905060208303925062000bca565b6001836020036101000a0380198251168184511680821785525050505050509050019150506040518091039020897fc8f7534861b4830370f7e88379a1df48ef6a05cf47b4c07ed9bb79625365b55e60405160405180910390a45050505050505050565b606060018054905060405190808252806020026020018201604052801562000c8a5781602001602082028038833980820191505090505b50905060008090505b60018054905081101562000d13576001818154811062000caf57fe5b906000526020600020906007020160010160009054906101000a900460601b82828151811062000cdb57fe5b60200260200101906bffffffffffffffffffffffff191690816bffffffffffffffffffffffff19168152505080600101905062000c93565b5080905090565b6060600280548060200260200160405190810160405280929190818152602001828054801562000da057602002820191906000526020600020905b8160009054906101000a900473ffffffffffffffffffffffffffffffffffffffff1673ffffffffffffffffffffffffffffffffffffffff168152602001906001019080831162000d55575b5050505050905090565b62000db462001d1f565b62000e27576040517f08c379a00000000000000000000000000000000000000000000000000000000081526004018080602001828103825260208152602001807f4f776e61626c653a2063616c6c6572206973206e6f7420746865206f776e657281525060200191505060405180910390fd5b600062000e3482620021d3565b905062000e4062002849565b6001828154811062000e4e57fe5b90600052602060002090600702016040518060e00160405290816000820160009054906101000a900473ffffffffffffffffffffffffffffffffffffffff1673ffffffffffffffffffffffffffffffffffffffff1673ffffffffffffffffffffffffffffffffffffffff1681526020016001820160009054906101000a900460601b6bffffffffffffffffffffffff19166bffffffffffffffffffffffff1916815260200160028201548152602001600382018054600181600116156101000203166002900480601f01602080910402602001604051908101604052809291908181526020018280546001816001161561010002031660029004801562000f995780601f1062000f6d5761010080835404028352916020019162000f99565b820191906000526020600020905b81548152906001019060200180831162000f7b57829003601f168201915b50505050508152602001600482018054600181600116156101000203166002900480601f0160208091040260200160405190810160405280929190818152602001828054600181600116156101000203166002900480156200103f5780601f1062001013576101008083540402835291602001916200103f565b820191906000526020600020905b8154815290600101906020018083116200102157829003601f168201915b50505050508152602001600582018054600181600116156101000203166002900480601f016020809104026020016040519081016040528092919081815260200182805460018160011615610100020316600290048015620010e55780601f10620010b957610100808354040283529160200191620010e5565b820191906000526020600020905b815481529060010190602001808311620010c757829003601f168201915b50505050508152602001600682018054600181600116156101000203166002900480601f0160208091040260200160405190810160405280929190818152602001828054600181600116156101000203166002900480156200118b5780601f106200115f576101008083540402835291602001916200118b565b820191906000526020600020905b8154815290600101906020018083116200116d57829003601f168201915b5050505050815250509050620011a18262002262565b600081604001511415620014df57600081600001518260200151836060015184608001518560a001518660c00151604051620011dd9062002932565b808773ffffffffffffffffffffffffffffffffffffffff1673ffffffffffffffffffffffffffffffffffffffff168152602001866bffffffffffffffffffffffff19166bffffffffffffffffffffffff1916815260200180602001806020018060200180602001858103855289818151815260200191508051906020019080838360005b838110156200127e57808201518184015260208101905062001261565b50505050905090810190601f168015620012ac5780820380516001836020036101000a031916815260200191505b50858103845288818151815260200191508051906020019080838360005b83811015620012e7578082015181840152602081019050620012ca565b50505050905090810190601f168015620013155780820380516001836020036101000a031916815260200191505b50858103835287818151815260200191508051906020019080838360005b838110156200135057808201518184015260208101905062001333565b50505050905090810190601f1680156200137e5780820380516001836020036101000a031916815260200191505b50858103825286818151815260200191508051906020019080838360005b83811015620013b95780820151818401526020810190506200139c565b50505050905090810190601f168015620013e75780820380516001836020036101000a031916815260200191505b509a5050505050505050505050604051809103906000f08015801562001411573d6000803e3d6000fd5b50905060028190806001815401808255809150509060018203906000526020600020016000909192909190916101000a81548173ffffffffffffffffffffffffffffffffffffffff021916908373ffffffffffffffffffffffffffffffffffffffff16021790555050816000015173ffffffffffffffffffffffffffffffffffffffff168173ffffffffffffffffffffffffffffffffffffffff167f8322aca383e0b6ac5377a0e16ba66f8905a154d8bc387636b2e8dc7aabc1970160405160405180910390a350620015ad565b600181604001511415620014f357620015ac565b620015028160200151620024e3565b91506000600283815481106200151457fe5b9060005260206000200160009054906101000a900473ffffffffffffffffffffffffffffffffffffffff1690506200154c8362002601565b816000015173ffffffffffffffffffffffffffffffffffffffff168173ffffffffffffffffffffffffffffffffffffffff167f4fa5e739dad84e6f8ec2e4882cb531697df5121017661c264489ff446a9ebff260405160405180910390a3505b5b806000015173ffffffffffffffffffffffffffffffffffffffff1681606001516040518082805190602001908083835b60208310620016025780518252602082019150602081019050602083039250620015dd565b6001836020036101000a038019825116818451168082178552505050505050905001915050604051809103902082604001517fa8b4e37df2ef904076c87a1e7c63e7b56959f28d399cefa2ac5462c15944264560405160405180910390a4505050565b60008060008090505b6014811015620016f4576008810260ff60f81b8260130360080260020a8673ffffffffffffffffffffffffffffffffffffffff1681620016aa57fe5b0460f81b167effffffffffffffffffffffffffffffffffffffffffffffffffffffffffffff19166bffffffffffffffffffffffff1916901c8217915080806001019150506200166e565b5080915050919050565b6000600180549050905090565b6200171562001d1f565b62001788576040517f08c379a00000000000000000000000000000000000000000000000000000000081526004018080602001828103825260208152602001807f4f776e61626c653a2063616c6c6572206973206e6f7420746865206f776e657281525060200191505060405180910390fd5b60006200179582620021d3565b9050620017a162002849565b60018281548110620017af57fe5b90600052602060002090600702016040518060e00160405290816000820160009054906101000a900473ffffffffffffffffffffffffffffffffffffffff1673ffffffffffffffffffffffffffffffffffffffff1673ffffffffffffffffffffffffffffffffffffffff1681526020016001820160009054906101000a900460601b6bffffffffffffffffffffffff19166bffffffffffffffffffffffff1916815260200160028201548152602001600382018054600181600116156101000203166002900480601f016020809104026020016040519081016040528092919081815260200182805460018160011615610100020316600290048015620018fa5780601f10620018ce57610100808354040283529160200191620018fa565b820191906000526020600020905b815481529060010190602001808311620018dc57829003601f168201915b50505050508152602001600482018054600181600116156101000203166002900480601f016020809104026020016040519081016040528092919081815260200182805460018160011615610100020316600290048015620019a05780601f106200197457610100808354040283529160200191620019a0565b820191906000526020600020905b8154815290600101906020018083116200198257829003601f168201915b50505050508152602001600582018054600181600116156101000203166002900480601f01602080910402602001604051908101604052809291908181526020018280546001816001161561010002031660029004801562001a465780601f1062001a1a5761010080835404028352916020019162001a46565b820191906000526020600020905b81548152906001019060200180831162001a2857829003601f168201915b50505050508152602001600682018054600181600116156101000203166002900480601f01602080910402602001604051908101604052809291908181526020018280546001816001161561010002031660029004801562001aec5780601f1062001ac05761010080835404028352916020019162001aec565b820191906000526020600020905b81548152906001019060200180831162001ace57829003601f168201915b505050505081525050905062001b028262002262565b806000015173ffffffffffffffffffffffffffffffffffffffff1681606001516040518082805190602001908083835b6020831062001b57578051825260208201915060208101905060208303925062001b32565b6001836020036101000a038019825116818451168082178552505050505050905001915050604051809103902082604001517fded73278e84598571a5ea34853a7bf3ffc7d6f14e770b10aae9ef124947386d160405160405180910390a4505050565b62001bc462001d1f565b62001c37576040517f08c379a00000000000000000000000000000000000000000000000000000000081526004018080602001828103825260208152602001807f4f776e61626c653a2063616c6c6572206973206e6f7420746865206f776e657281525060200191505060405180910390fd5b600073ffffffffffffffffffffffffffffffffffffffff166000809054906101000a900473ffffffffffffffffffffffffffffffffffffffff1673ffffffffffffffffffffffffffffffffffffffff167f8be0079c531659141344cd1fd0a4f28419497f9722a3daafe3b4186f6b6457e060405160405180910390a360008060006101000a81548173ffffffffffffffffffffffffffffffffffffffff021916908373ffffffffffffffffffffffffffffffffffffffff160217905550565b60008060009054906101000a900473ffffffffffffffffffffffffffffffffffffffff16905090565b60008060009054906101000a900473ffffffffffffffffffffffffffffffffffffffff1673ffffffffffffffffffffffffffffffffffffffff1662001d63620026fb565b73ffffffffffffffffffffffffffffffffffffffff1614905090565b6000600280549050905090565b62001d9662001d1f565b62001e09576040517f08c379a00000000000000000000000000000000000000000000000000000000081526004018080602001828103825260208152602001807f4f776e61626c653a2063616c6c6572206973206e6f7420746865206f776e657281525060200191505060405180910390fd5b62001e148162002703565b50565b600060608060608060008090505b600180549050811015620021bf57866bffffffffffffffffffffffff19166001828154811062001e5157fe5b906000526020600020906007020160010160009054906101000a900460601b6bffffffffffffffffffffffff19161415620021b3576001818154811062001e9457fe5b9060005260206000209060070201600201546001828154811062001eb457fe5b90600052602060002090600702016003016001838154811062001ed357fe5b90600052602060002090600702016004016001848154811062001ef257fe5b90600052602060002090600702016005016001858154811062001f1157fe5b9060005260206000209060070201600601838054600181600116156101000203166002900480601f01602080910402602001604051908101604052809291908181526020018280546001816001161561010002031660029004801562001fbb5780601f1062001f8f5761010080835404028352916020019162001fbb565b820191906000526020600020905b81548152906001019060200180831162001f9d57829003601f168201915b50505050509350828054600181600116156101000203166002900480601f0160208091040260200160405190810160405280929190818152602001828054600181600116156101000203166002900480156200205b5780601f106200202f576101008083540402835291602001916200205b565b820191906000526020600020905b8154815290600101906020018083116200203d57829003601f168201915b50505050509250818054600181600116156101000203166002900480601f016020809104026020016040519081016040528092919081815260200182805460018160011615610100020316600290048015620020fb5780601f10620020cf57610100808354040283529160200191620020fb565b820191906000526020600020905b815481529060010190602001808311620020dd57829003601f168201915b50505050509150808054600181600116156101000203166002900480601f0160208091040260200160405190810160405280929190818152602001828054600181600116156101000203166002900480156200219b5780601f106200216f576101008083540402835291602001916200219b565b820191906000526020600020905b8154815290600101906020018083116200217d57829003601f168201915b505050505090509550955095509550955050620021ca565b80600101905062001e25565b506000620021c957fe5b5b91939590929450565b600080600090505b6001805490508110156200225257826bffffffffffffffffffffffff1916600182815481106200220757fe5b906000526020600020906007020160010160009054906101000a900460601b6bffffffffffffffffffffffff191614156200224657809150506200225d565b806001019050620021db565b5060006200225c57fe5b5b919050565b60008190505b6001805490506001820110156200241c576001808201815481106200228957fe5b906000526020600020906007020160018281548110620022a557fe5b90600052602060002090600702016000820160009054906101000a900473ffffffffffffffffffffffffffffffffffffffff168160000160006101000a81548173ffffffffffffffffffffffffffffffffffffffff021916908373ffffffffffffffffffffffffffffffffffffffff1602179055506001820160009054906101000a900460601b8160010160006101000a81548173ffffffffffffffffffffffffffffffffffffffff021916908360601c021790555060028201548160020155600382018160030190805460018160011615610100020316600290046200238e92919062002940565b5060048201816004019080546001816001161561010002031660029004620023b892919062002940565b5060058201816005019080546001816001161561010002031660029004620023e292919062002940565b50600682018160060190805460018160011615610100020316600290046200240c92919062002940565b5090505080600101905062002268565b5060018054806200242957fe5b6001900381819060005260206000209060070201600080820160006101000a81549073ffffffffffffffffffffffffffffffffffffffff02191690556001820160006101000a81549073ffffffffffffffffffffffffffffffffffffffff02191690556002820160009055600382016000620024a69190620029ce565b600482016000620024b89190620029ce565b600582016000620024ca9190620029ce565b600682016000620024dc9190620029ce565b5050905550565b600080600090505b600280549050811015620025f157826bffffffffffffffffffffffff1916600282815481106200251757fe5b9060005260206000200160009054906101000a900473ffffffffffffffffffffffffffffffffffffffff1673ffffffffffffffffffffffffffffffffffffffff1663af640d0f6040518163ffffffff1660e01b815260040160206040518083038186803b1580156200258857600080fd5b505afa1580156200259d573d6000803e3d6000fd5b505050506040513d6020811015620025b457600080fd5b81019080805190602001909291905050506bffffffffffffffffffffffff19161415620025e55780915050620025fc565b806001019050620024eb565b506000620025fb57fe5b5b919050565b60008190505b600280549050600182011015620026b657600260018201815481106200262957fe5b9060005260206000200160009054906101000a900473ffffffffffffffffffffffffffffffffffffffff16600282815481106200266257fe5b9060005260206000200160006101000a81548173ffffffffffffffffffffffffffffffffffffffff021916908373ffffffffffffffffffffffffffffffffffffffff16021790555080600101905062002607565b506002805480620026c357fe5b6001900381819060005260206000200160006101000a81549073ffffffffffffffffffffffffffffffffffffffff0219169055905550565b600033905090565b600073ffffffffffffffffffffffffffffffffffffffff168173ffffffffffffffffffffffffffffffffffffffff1614156200278b576040517f08c379a0000000000000000000000000000000000000000000000000000000008152600401808060200182810382526026815260200180620041166026913960400191505060405180910390fd5b8073ffffffffffffffffffffffffffffffffffffffff166000809054906101000a900473ffffffffffffffffffffffffffffffffffffffff1673ffffffffffffffffffffffffffffffffffffffff167f8be0079c531659141344cd1fd0a4f28419497f9722a3daafe3b4186f6b6457e060405160405180910390a3806000806101000a81548173ffffffffffffffffffffffffffffffffffffffff021916908373ffffffffffffffffffffffffffffffffffffffff16021790555050565b6040518060e00160405280600073ffffffffffffffffffffffffffffffffffffffff16815260200160006bffffffffffffffffffffffff1916815260200160008152602001606081526020016060815260200160608152602001606081525090565b828054600181600116156101000203166002900490600052602060002090601f016020900481019282601f10620028ee57805160ff19168380011785556200291f565b828001600101855582156200291f579182015b828111156200291e57825182559160200191906001019062002901565b5b5090506200292e919062002a1a565b5090565b6116d38062002a4383390190565b828054600181600116156101000203166002900490600052602060002090601f016020900481019282601f106200297b5780548555620029bb565b82800160010185558215620029bb57600052602060002091601f016020900482015b82811115620029ba5782548255916001019190600101906200299d565b5b509050620029ca919062002a1a565b5090565b50805460018160011615610100020316600290046000825580601f10620029f6575062002a17565b601f01602090049060005260206000209081019062002a16919062002a1a565b5b50565b62002a3f91905b8082111562002a3b57600081600090555060010162002a21565b5090565b9056fe60806040523480156200001157600080fd5b50604051620016d3380380620016d3833981810160405260c08110156200003757600080fd5b810190808051906020019092919080519060200190929190805160405193929190846401000000008211156200006c57600080fd5b838201915060208201858111156200008357600080fd5b8251866001820283011164010000000082111715620000a157600080fd5b8083526020830192505050908051906020019080838360005b83811015620000d7578082015181840152602081019050620000ba565b50505050905090810190601f168015620001055780820380516001836020036101000a031916815260200191505b50604052602001805160405193929190846401000000008211156200012957600080fd5b838201915060208201858111156200014057600080fd5b82518660018202830111640100000000821117156200015e57600080fd5b8083526020830192505050908051906020019080838360005b838110156200019457808201518184015260208101905062000177565b50505050905090810190601f168015620001c25780820380516001836020036101000a031916815260200191505b5060405260200180516040519392919084640100000000821115620001e657600080fd5b83820191506020820185811115620001fd57600080fd5b82518660018202830111640100000000821117156200021b57600080fd5b8083526020830192505050908051906020019080838360005b838110156200025157808201518184015260208101905062000234565b50505050905090810190601f1680156200027f5780820380516001836020036101000a031916815260200191505b5060405260200180516040519392919084640100000000821115620002a357600080fd5b83820191506020820185811115620002ba57600080fd5b8251866001820283011164010000000082111715620002d857600080fd5b8083526020830192505050908051906020019080838360005b838110156200030e578082015181840152602081019050620002f1565b50505050905090810190601f1680156200033c5780820380516001836020036101000a031916815260200191505b5060405250505062000353620004bd60201b60201c565b6000806101000a81548173ffffffffffffffffffffffffffffffffffffffff021916908373ffffffffffffffffffffffffffffffffffffffff1602179055506000809054906101000a900473ffffffffffffffffffffffffffffffffffffffff1673ffffffffffffffffffffffffffffffffffffffff16600073ffffffffffffffffffffffffffffffffffffffff167f8be0079c531659141344cd1fd0a4f28419497f9722a3daafe3b4186f6b6457e060405160405180910390a36200041f86620004c560201b60201c565b84600160006101000a81548173ffffffffffffffffffffffffffffffffffffffff021916908360601c02179055508360029080519060200190620004659291906200060b565b5082600390805190602001906200047e9291906200060b565b508160049080519060200190620004979291906200060b565b508060059080519060200190620004b09291906200060b565b50505050505050620006ba565b600033905090565b600073ffffffffffffffffffffffffffffffffffffffff168173ffffffffffffffffffffffffffffffffffffffff1614156200054d576040517f08c379a0000000000000000000000000000000000000000000000000000000008152600401808060200182810382526026815260200180620016ad6026913960400191505060405180910390fd5b8073ffffffffffffffffffffffffffffffffffffffff166000809054906101000a900473ffffffffffffffffffffffffffffffffffffffff1673ffffffffffffffffffffffffffffffffffffffff167f8be0079c531659141344cd1fd0a4f28419497f9722a3daafe3b4186f6b6457e060405160405180910390a3806000806101000a81548173ffffffffffffffffffffffffffffffffffffffff021916908373ffffffffffffffffffffffffffffffffffffffff16021790555050565b828054600181600116156101000203166002900490600052602060002090601f016020900481019282601f106200064e57805160ff19168380011785556200067f565b828001600101855582156200067f579182015b828111156200067e57825182559160200191906001019062000661565b5b5090506200068e919062000692565b5090565b620006b791905b80821115620006b357600081600090555060010162000699565b5090565b90565b610fe380620006ca6000396000f3fe608060405234801561001057600080fd5b50600436106100b45760003560e01c80639284f497116100715780639284f4971461032c5780639a68308f146103af578063af640d0f14610432578063cc28783a1461046e578063f2fde38b1461048c578063f851a440146104d0576100b4565b806306fdde03146100b95780630ef92b791461013c5780634d6f2524146101f1578063715018a6146102b65780638da5cb5b146102c05780638f32d59b1461030a575b600080fd5b6100c1610553565b6040518080602001828103825283818151815260200191508051906020019080838360005b838110156101015780820151818401526020810190506100e6565b50505050905090810190601f16801561012e5780820380516001836020036101000a031916815260200191505b509250505060405180910390f35b6101686004803603602081101561015257600080fd5b81019080803590602001909291905050506105f1565b6040518080602001848152602001838152602001828103825285818151815260200191508051906020019080838360005b838110156101b4578082015181840152602081019050610199565b50505050905090810190601f1680156101e15780820380516001836020036101000a031916815260200191505b5094505050505060405180910390f35b6102b46004803603604081101561020757600080fd5b810190808035906020019064010000000081111561022457600080fd5b82018360208201111561023657600080fd5b8035906020019184600183028401116401000000008311171561025857600080fd5b91908080601f016020809104026020016040519081016040528093929190818152602001838380828437600081840152601f19601f82011690508083019250505050505050919291929080359060200190929190505050610795565b005b6102be61093d565b005b6102c8610a76565b604051808273ffffffffffffffffffffffffffffffffffffffff1673ffffffffffffffffffffffffffffffffffffffff16815260200191505060405180910390f35b610312610a9f565b604051808215151515815260200191505060405180910390f35b610334610afd565b6040518080602001828103825283818151815260200191508051906020019080838360005b83811015610374578082015181840152602081019050610359565b50505050905090810190601f1680156103a15780820380516001836020036101000a031916815260200191505b509250505060405180910390f35b6103b7610b9b565b6040518080602001828103825283818151815260200191508051906020019080838360005b838110156103f75780820151818401526020810190506103dc565b50505050905090810190601f1680156104245780820380516001836020036101000a031916815260200191505b509250505060405180910390f35b61043a610c39565b60405180826bffffffffffffffffffffffff19166bffffffffffffffffffffffff1916815260200191505060405180910390f35b610476610c4c565b6040518082815260200191505060405180910390f35b6104ce600480360360208110156104a257600080fd5b81019080803573ffffffffffffffffffffffffffffffffffffffff169060200190929190505050610c59565b005b6104d8610cdf565b6040518080602001828103825283818151815260200191508051906020019080838360005b838110156105185780820151818401526020810190506104fd565b50505050905090810190601f1680156105455780820380516001836020036101000a031916815260200191505b509250505060405180910390f35b60028054600181600116156101000203166002900480601f0160208091040260200160405190810160405280929190818152602001828054600181600116156101000203166002900480156105e95780601f106105be576101008083540402835291602001916105e9565b820191906000526020600020905b8154815290600101906020018083116105cc57829003601f168201915b505050505081565b60606000806006805490508410610670576040517f08c379a000000000000000000000000000000000000000000000000000000000815260040180806020018281038252601c8152602001807f54686520696e6465782065786365656473207468652072616e67652e0000000081525060200191505060405180910390fd5b6006848154811061067d57fe5b906000526020600020906002020160010154915060068054905060018501146106c757600660018501815481106106b057fe5b9060005260206000209060020201600101546106ca565b60005b9050600684815481106106d957fe5b90600052602060002090600202016000018282828054600181600116156101000203166002900480601f0160208091040260200160405190810160405280929190818152602001828054600181600116156101000203166002900480156107815780601f1061075657610100808354040283529160200191610781565b820191906000526020600020905b81548152906001019060200180831161076457829003601f168201915b505050505092509250925092509193909250565b61079d610a9f565b61080f576040517f08c379a00000000000000000000000000000000000000000000000000000000081526004018080602001828103825260208152602001807f4f776e61626c653a2063616c6c6572206973206e6f7420746865206f776e657281525060200191505060405180910390fd5b610817610ec9565b6040518060400160405280848152602001838152509050600681908060018154018082558091505090600182039060005260206000209060020201600090919290919091506000820151816000019080519060200190610878929190610ee3565b50602082015181600101555050506006805490507f6fb1bcacba5a0b909ff331ecd69976765812afb925cd652b0fd5ecd325a23d3f826000015183602001516040518080602001838152602001828103825284818151815260200191508051906020019080838360005b838110156108fd5780820151818401526020810190506108e2565b50505050905090810190601f16801561092a5780820380516001836020036101000a031916815260200191505b50935050505060405180910390a2505050565b610945610a9f565b6109b7576040517f08c379a00000000000000000000000000000000000000000000000000000000081526004018080602001828103825260208152602001807f4f776e61626c653a2063616c6c6572206973206e6f7420746865206f776e657281525060200191505060405180910390fd5b600073ffffffffffffffffffffffffffffffffffffffff166000809054906101000a900473ffffffffffffffffffffffffffffffffffffffff1673ffffffffffffffffffffffffffffffffffffffff167f8be0079c531659141344cd1fd0a4f28419497f9722a3daafe3b4186f6b6457e060405160405180910390a360008060006101000a81548173ffffffffffffffffffffffffffffffffffffffff021916908373ffffffffffffffffffffffffffffffffffffffff160217905550565b60008060009054906101000a900473ffffffffffffffffffffffffffffffffffffffff16905090565b60008060009054906101000a900473ffffffffffffffffffffffffffffffffffffffff1673ffffffffffffffffffffffffffffffffffffffff16610ae1610d7d565b73ffffffffffffffffffffffffffffffffffffffff1614905090565b60048054600181600116156101000203166002900480601f016020809104026020016040519081016040528092919081815260200182805460018160011615610100020316600290048015610b935780601f10610b6857610100808354040283529160200191610b93565b820191906000526020600020905b815481529060010190602001808311610b7657829003601f168201915b505050505081565b60058054600181600116156101000203166002900480601f016020809104026020016040519081016040528092919081815260200182805460018160011615610100020316600290048015610c315780601f10610c0657610100808354040283529160200191610c31565b820191906000526020600020905b815481529060010190602001808311610c1457829003601f168201915b505050505081565b600160009054906101000a900460601b81565b6000600680549050905090565b610c61610a9f565b610cd3576040517f08c379a00000000000000000000000000000000000000000000000000000000081526004018080602001828103825260208152602001807f4f776e61626c653a2063616c6c6572206973206e6f7420746865206f776e657281525060200191505060405180910390fd5b610cdc81610d85565b50565b60038054600181600116156101000203166002900480601f016020809104026020016040519081016040528092919081815260200182805460018160011615610100020316600290048015610d755780601f10610d4a57610100808354040283529160200191610d75565b820191906000526020600020905b815481529060010190602001808311610d5857829003601f168201915b505050505081565b600033905090565b600073ffffffffffffffffffffffffffffffffffffffff168173ffffffffffffffffffffffffffffffffffffffff161415610e0b576040517f08c379a0000000000000000000000000000000000000000000000000000000008152600401808060200182810382526026815260200180610f896026913960400191505060405180910390fd5b8073ffffffffffffffffffffffffffffffffffffffff166000809054906101000a900473ffffffffffffffffffffffffffffffffffffffff1673ffffffffffffffffffffffffffffffffffffffff167f8be0079c531659141344cd1fd0a4f28419497f9722a3daafe3b4186f6b6457e060405160405180910390a3806000806101000a81548173ffffffffffffffffffffffffffffffffffffffff021916908373ffffffffffffffffffffffffffffffffffffffff16021790555050565b604051806040016040528060608152602001600081525090565b828054600181600116156101000203166002900490600052602060002090601f016020900481019282601f10610f2457805160ff1916838001178555610f52565b82800160010185558215610f52579182015b82811115610f51578251825591602001919060010190610f36565b5b509050610f5f9190610f63565b5090565b610f8591905b80821115610f81576000816000905550600101610f69565b5090565b9056fe4f776e61626c653a206e6577206f776e657220697320746865207a65726f2061646472657373a265627a7a72315820cdfa7c0afcd309449727927e73b31f374aa3f123b6ad3ed975678deb08f3fd4a64736f6c634300051000324f776e61626c653a206e6577206f776e657220697320746865207a65726f20616464726573734f776e61626c653a206e6577206f776e657220697320746865207a65726f2061646472657373a265627a7a723158203bf948f9a3175cbedadca44b3d408a8345377bb7776413f8003f9eb91cadde5a64736f6c634300051000324f776e61626c653a206e6577206f776e657220697320746865207a65726f2061646472657373",
  "source": "pragma solidity >=0.4.21 <0.7.0;\n\nimport \"openzeppelin-solidity/contracts/ownership/Ownable.sol\";\n\nimport \"./NIDOrg.sol\";\n\n\ncontract NIDAdmin is Ownable {\n\n    struct OrgRequest {\n        address owner;\n        bytes20 id;\n        uint256 reqType;\n        string name;\n        string admin;\n        string phone;\n        string mail;\n    }\n\n    OrgRequest[] private _reqs;\n    NIDOrg[] private _orgs;\n\n    // events\n    event OrgRequestSubmitted(uint256 indexed reqType, string indexed orgName, address indexed account);\n    event OrgRequestApproved(uint256 indexed reqType, string indexed orgName, address indexed account);\n    event OrgRequestRejected(uint256 indexed reqType, string indexed orgName, address indexed account);\n    event OrgCreated(NIDOrg indexed org, address indexed account);\n    event OrgUpdated(NIDOrg indexed org, address indexed account);\n    event OrgDeleted(NIDOrg indexed org, address indexed account);\n\n    constructor() public {\n        _transferOwnership(msg.sender);\n    }\n\n    function toBytes(address x) public pure returns (bytes20) {\n        bytes20 b;\n        for (uint i = 0; i < 20; i++) {\n            b |= bytes20(byte(uint8(uint256(x) / (2 ** (8 * (19 - i))))) & 0xFF) >> (i * 8);\n        }\n        return b;\n    }\n\n    function createOrgRequest(\n        uint256 _reqType,\n        string memory _name,\n        string memory _admin,\n        string memory _phone,\n        string memory _mail\n    )\n        public\n    {\n        bytes20 id = toBytes(msg.sender);\n        OrgRequest memory req = OrgRequest(\n            msg.sender,\n            id,\n            _reqType,\n            _name,\n            _admin,\n            _phone,\n            _mail\n        );\n        bool applied = false;\n        for (uint256 i = 0; i < _reqs.length; ++i) {\n            if (_reqs[i].id == id) {\n                _reqs[i] = req;\n                applied = true;\n                break;\n            }\n        }\n        if (!applied) {\n            _reqs.push(req);\n        }\n        emit OrgRequestSubmitted(_reqType, _name, msg.sender);\n    }\n\n    function requestDetailQuery(bytes20 id) public view returns (\n        uint256 reqType,\n        string memory name,\n        string memory admin,\n        string memory phone,\n        string memory mail\n    ) {\n        for (uint256 i = 0; i < _reqs.length; ++i) {\n            if (_reqs[i].id == id) {\n                return (\n                    _reqs[i].reqType,\n                    _reqs[i].name,\n                    _reqs[i].admin,\n                    _reqs[i].phone,\n                    _reqs[i].mail\n                );\n            }\n        }\n        assert(false);\n    }\n\n    function requestIdsQuery() public view returns (bytes20[] memory ids) {\n        ids = new bytes20[](_reqs.length);\n        for (uint256 i = 0; i < _reqs.length; ++i) {\n            ids[i] = _reqs[i].id;\n        }\n        return ids;\n    }\n\n    function requestCount() public view returns (uint256) {\n        return _reqs.length;\n    }\n\n    function orgQuery() public view returns (NIDOrg[] memory) {\n        return _orgs;\n    }\n\n    function orgCount() public view returns (uint256) {\n        return _orgs.length;\n    }\n\n    function findIndexFromReqs(bytes20 id) private view returns (uint256){\n        for (uint256 i = 0; i < _reqs.length; ++i) {\n            if (_reqs[i].id == id) {\n                return i;\n            }\n        }\n        assert(false);\n    }\n\n    function removeFromReqs(uint256 index) private {\n        for (uint256 i = index; i + 1 < _reqs.length; ++i) {\n            _reqs[i] = _reqs[i + 1];\n        }\n        _reqs.pop();\n    }\n\n    function findIndexFromOrgs(bytes20 id) private view returns (uint256){\n        for (uint256 i = 0; i < _orgs.length; ++i) {\n            if (_orgs[i].id() == id) {\n                return i;\n            }\n        }\n        assert(false);\n    }\n\n    function removeFromOrgs(uint256 index) private {\n        for (uint256 i = index; i + 1 < _orgs.length; ++i) {\n            _orgs[i] = _orgs[i + 1];\n        }\n        _orgs.pop();\n    }\n\n    function requestApprove(bytes20 id) public onlyOwner {\n        uint256 index = findIndexFromReqs(id);\n        OrgRequest memory req = _reqs[index];\n        removeFromReqs(index);\n        if (req.reqType == 0) {\n            NIDOrg org = new NIDOrg(\n                req.owner,\n                req.id,\n                req.name,\n                req.admin,\n                req.phone,\n                req.mail\n            );\n            _orgs.push(org);\n            emit OrgCreated(org, req.owner);\n        } else if (req.reqType == 1) {\n\n        } else {\n            index = findIndexFromOrgs(req.id);\n            NIDOrg org = _orgs[index];\n            removeFromOrgs(index);\n            emit OrgDeleted(org, req.owner);\n        }\n        emit OrgRequestApproved(req.reqType, req.name, req.owner);\n    }\n\n    function requestReject(bytes20 id) public onlyOwner {\n        uint256 index = findIndexFromReqs(id);\n        OrgRequest memory req = _reqs[index];\n        removeFromReqs(index);\n        emit OrgRequestRejected(req.reqType, req.name, req.owner);\n    }\n}\n",
  "sourcePath": "/Users/bragcat/Code/NIDChain/contracts/NIDAdmin.sol",
  "compiler": {
    "name": "solc",
    "version": "0.5.16+commit.9c3226ce.Emscripten.clang"
  },
  "schemaVersion": "3.0.23",
  "updatedAt": "2020-05-27T08:48:41.265Z",
  "devdoc": {
    "methods": {
      "isOwner()": {
        "details": "Returns true if the caller is the current owner."
      },
      "owner()": {
        "details": "Returns the address of the current owner."
      },
      "renounceOwnership()": {
        "details": "Leaves the contract without owner. It will not be possible to call `onlyOwner` functions anymore. Can only be called by the current owner.     * NOTE: Renouncing ownership will leave the contract without an owner, thereby removing any functionality that is only available to the owner."
      },
      "transferOwnership(address)": {
        "details": "Transfers ownership of the contract to a new account (`newOwner`). Can only be called by the current owner."
      }
    }
  },
  "userdoc": {
    "methods": {}
  }
}