{
  "contractName": "NIDAdmin",
  "abi": [
    {
      "inputs": [],
      "payable": false,
      "stateMutability": "nonpayable",
      "type": "constructor"
    },
    {
      "anonymous": false,
      "inputs": [
        {
          "indexed": true,
          "internalType": "contract NIDOrg",
          "name": "org",
          "type": "address"
        },
        {
          "indexed": true,
          "internalType": "address",
          "name": "account",
          "type": "address"
        }
      ],
      "name": "OrgCreated",
      "type": "event"
    },
    {
      "anonymous": false,
      "inputs": [
        {
          "indexed": true,
          "internalType": "contract NIDOrg",
          "name": "org",
          "type": "address"
        },
        {
          "indexed": true,
          "internalType": "address",
          "name": "account",
          "type": "address"
        }
      ],
      "name": "OrgDeleted",
      "type": "event"
    },
    {
      "anonymous": false,
      "inputs": [
        {
          "indexed": true,
          "internalType": "uint256",
          "name": "reqType",
          "type": "uint256"
        },
        {
          "indexed": true,
          "internalType": "string",
          "name": "orgName",
          "type": "string"
        },
        {
          "indexed": true,
          "internalType": "address",
          "name": "account",
          "type": "address"
        }
      ],
      "name": "OrgRequestApproved",
      "type": "event"
    },
    {
      "anonymous": false,
      "inputs": [
        {
          "indexed": true,
          "internalType": "uint256",
          "name": "reqType",
          "type": "uint256"
        },
        {
          "indexed": true,
          "internalType": "string",
          "name": "orgName",
          "type": "string"
        },
        {
          "indexed": true,
          "internalType": "address",
          "name": "account",
          "type": "address"
        }
      ],
      "name": "OrgRequestRejected",
      "type": "event"
    },
    {
      "anonymous": false,
      "inputs": [
        {
          "indexed": true,
          "internalType": "uint256",
          "name": "reqType",
          "type": "uint256"
        },
        {
          "indexed": true,
          "internalType": "string",
          "name": "orgName",
          "type": "string"
        },
        {
          "indexed": true,
          "internalType": "address",
          "name": "account",
          "type": "address"
        }
      ],
      "name": "OrgRequestSubmitted",
      "type": "event"
    },
    {
      "anonymous": false,
      "inputs": [
        {
          "indexed": true,
          "internalType": "contract NIDOrg",
          "name": "org",
          "type": "address"
        },
        {
          "indexed": true,
          "internalType": "address",
          "name": "account",
          "type": "address"
        }
      ],
      "name": "OrgUpdated",
      "type": "event"
    },
    {
      "anonymous": false,
      "inputs": [
        {
          "indexed": true,
          "internalType": "address",
          "name": "previousOwner",
          "type": "address"
        },
        {
          "indexed": true,
          "internalType": "address",
          "name": "newOwner",
          "type": "address"
        }
      ],
      "name": "OwnershipTransferred",
      "type": "event"
    },
    {
      "constant": true,
      "inputs": [],
      "name": "isOwner",
      "outputs": [
        {
          "internalType": "bool",
          "name": "",
          "type": "bool"
        }
      ],
      "payable": false,
      "stateMutability": "view",
      "type": "function"
    },
    {
      "constant": true,
      "inputs": [],
      "name": "owner",
      "outputs": [
        {
          "internalType": "address",
          "name": "",
          "type": "address"
        }
      ],
      "payable": false,
      "stateMutability": "view",
      "type": "function"
    },
    {
      "constant": false,
      "inputs": [],
      "name": "renounceOwnership",
      "outputs": [],
      "payable": false,
      "stateMutability": "nonpayable",
      "type": "function"
    },
    {
      "constant": false,
      "inputs": [
        {
          "internalType": "address",
          "name": "newOwner",
          "type": "address"
        }
      ],
      "name": "transferOwnership",
      "outputs": [],
      "payable": false,
      "stateMutability": "nonpayable",
      "type": "function"
    },
    {
      "constant": true,
      "inputs": [
        {
          "internalType": "address",
          "name": "x",
          "type": "address"
        }
      ],
      "name": "toBytes",
      "outputs": [
        {
          "internalType": "bytes20",
          "name": "",
          "type": "bytes20"
        }
      ],
      "payable": false,
      "stateMutability": "pure",
      "type": "function"
    },
    {
      "constant": false,
      "inputs": [
        {
          "internalType": "uint256",
          "name": "_reqType",
          "type": "uint256"
        },
        {
          "internalType": "string",
          "name": "_name",
          "type": "string"
        },
        {
          "internalType": "string",
          "name": "_admin",
          "type": "string"
        },
        {
          "internalType": "string",
          "name": "_phone",
          "type": "string"
        },
        {
          "internalType": "string",
          "name": "_mail",
          "type": "string"
        },
        {
          "internalType": "string",
          "name": "_nidAddr",
          "type": "string"
        },
        {
          "internalType": "uint256",
          "name": "_nidPort",
          "type": "uint256"
        },
        {
          "internalType": "string",
          "name": "_pool",
          "type": "string"
        }
      ],
      "name": "createOrgRequest",
      "outputs": [],
      "payable": false,
      "stateMutability": "nonpayable",
      "type": "function"
    },
    {
      "constant": true,
      "inputs": [
        {
          "internalType": "bytes20",
          "name": "id",
          "type": "bytes20"
        }
      ],
      "name": "requestDetailQuery",
      "outputs": [
        {
          "internalType": "uint256",
          "name": "reqType",
          "type": "uint256"
        },
        {
          "internalType": "string",
          "name": "name",
          "type": "string"
        },
        {
          "internalType": "string",
          "name": "admin",
          "type": "string"
        },
        {
          "internalType": "string",
          "name": "phone",
          "type": "string"
        },
        {
          "internalType": "string",
          "name": "mail",
          "type": "string"
        },
        {
          "internalType": "string",
          "name": "nidAddr",
          "type": "string"
        },
        {
          "internalType": "uint256",
          "name": "nidPort",
          "type": "uint256"
        },
        {
          "internalType": "string",
          "name": "pool",
          "type": "string"
        }
      ],
      "payable": false,
      "stateMutability": "view",
      "type": "function"
    },
    {
      "constant": true,
      "inputs": [],
      "name": "requestIdsQuery",
      "outputs": [
        {
          "internalType": "bytes20[]",
          "name": "ids",
          "type": "bytes20[]"
        }
      ],
      "payable": false,
      "stateMutability": "view",
      "type": "function"
    },
    {
      "constant": true,
      "inputs": [],
      "name": "requestCount",
      "outputs": [
        {
          "internalType": "uint256",
          "name": "",
          "type": "uint256"
        }
      ],
      "payable": false,
      "stateMutability": "view",
      "type": "function"
    },
    {
      "constant": true,
      "inputs": [],
      "name": "orgQuery",
      "outputs": [
        {
          "internalType": "contract NIDOrg[]",
          "name": "",
          "type": "address[]"
        }
      ],
      "payable": false,
      "stateMutability": "view",
      "type": "function"
    },
    {
      "constant": true,
      "inputs": [],
      "name": "orgCount",
      "outputs": [
        {
          "internalType": "uint256",
          "name": "",
          "type": "uint256"
        }
      ],
      "payable": false,
      "stateMutability": "view",
      "type": "function"
    },
    {
      "constant": false,
      "inputs": [
        {
          "internalType": "bytes20",
          "name": "id",
          "type": "bytes20"
        }
      ],
      "name": "requestApprove",
      "outputs": [],
      "payable": false,
      "stateMutability": "nonpayable",
      "type": "function"
    },
    {
      "constant": false,
      "inputs": [
        {
          "internalType": "bytes20",
          "name": "id",
          "type": "bytes20"
        }
      ],
      "name": "requestReject",
      "outputs": [],
      "payable": false,
      "stateMutability": "nonpayable",
      "type": "function"
    }
  ],
  "bytecode": "0x60806040523480156200001157600080fd5b5062000022620000f460201b60201c565b6000806101000a81548173ffffffffffffffffffffffffffffffffffffffff021916908373ffffffffffffffffffffffffffffffffffffffff1602179055506000809054906101000a900473ffffffffffffffffffffffffffffffffffffffff1673ffffffffffffffffffffffffffffffffffffffff16600073ffffffffffffffffffffffffffffffffffffffff167f8be0079c531659141344cd1fd0a4f28419497f9722a3daafe3b4186f6b6457e060405160405180910390a3620000ee33620000fc60201b60201c565b62000242565b600033905090565b600073ffffffffffffffffffffffffffffffffffffffff168173ffffffffffffffffffffffffffffffffffffffff16141562000184576040517f08c379a000000000000000000000000000000000000000000000000000000000815260040180806020018281038252602681526020018062005ac26026913960400191505060405180910390fd5b8073ffffffffffffffffffffffffffffffffffffffff166000809054906101000a900473ffffffffffffffffffffffffffffffffffffffff1673ffffffffffffffffffffffffffffffffffffffff167f8be0079c531659141344cd1fd0a4f28419497f9722a3daafe3b4186f6b6457e060405160405180910390a3806000806101000a81548173ffffffffffffffffffffffffffffffffffffffff021916908373ffffffffffffffffffffffffffffffffffffffff16021790555050565b61587080620002526000396000f3fe60806040523480156200001157600080fd5b5060043610620000e25760003560e01c806368829a3311620000995780638f32d59b116200006f5780638f32d59b14620006f6578063d8106690146200071a578063f2fde38b146200073a578063f79e6d27146200078157620000e2565b806368829a33146200065e578063715018a6146200069e5780638da5cb5b14620006aa57620000e2565b806314c68b1314620000e75780631c9ee833146200014a5780631dde4aa61462000522578063276a8f311462000585578063593b79fe14620005c55780635badbe4c146200063e575b600080fd5b620000f162000a76565b6040518080602001828103825283818151815260200191508051906020019060200280838360005b838110156200013657808201518184015260208101905062000119565b505050509050019250505060405180910390f35b6200052060048036036101008110156200016357600080fd5b8101908080359060200190929190803590602001906401000000008111156200018b57600080fd5b8201836020820111156200019e57600080fd5b80359060200191846001830284011164010000000083111715620001c157600080fd5b91908080601f016020809104026020016040519081016040528093929190818152602001838380828437600081840152601f19601f820116905080830192505050505050509192919290803590602001906401000000008111156200022557600080fd5b8201836020820111156200023857600080fd5b803590602001918460018302840111640100000000831117156200025b57600080fd5b91908080601f016020809104026020016040519081016040528093929190818152602001838380828437600081840152601f19601f82011690508083019250505050505050919291929080359060200190640100000000811115620002bf57600080fd5b820183602082011115620002d257600080fd5b80359060200191846001830284011164010000000083111715620002f557600080fd5b91908080601f016020809104026020016040519081016040528093929190818152602001838380828437600081840152601f19601f820116905080830192505050505050509192919290803590602001906401000000008111156200035957600080fd5b8201836020820111156200036c57600080fd5b803590602001918460018302840111640100000000831117156200038f57600080fd5b91908080601f016020809104026020016040519081016040528093929190818152602001838380828437600081840152601f19601f82011690508083019250505050505050919291929080359060200190640100000000811115620003f357600080fd5b8201836020820111156200040657600080fd5b803590602001918460018302840111640100000000831117156200042957600080fd5b91908080601f016020809104026020016040519081016040528093929190818152602001838380828437600081840152601f19601f82011690508083019250505050505050919291929080359060200190929190803590602001906401000000008111156200049757600080fd5b820183602082011115620004aa57600080fd5b80359060200191846001830284011164010000000083111715620004cd57600080fd5b91908080601f016020809104026020016040519081016040528093929190818152602001838380828437600081840152601f19601f82011690508083019250505050505050919291929050505062000b3d565b005b6200052c62000fe8565b6040518080602001828103825283818151815260200191508051906020019060200280838360005b838110156200057157808201518184015260208101905062000554565b505050509050019250505060405180910390f35b620005c3600480360360208110156200059d57600080fd5b8101908080356bffffffffffffffffffffffff1916906020019092919050505062001078565b005b6200060a60048036036020811015620005dd57600080fd5b81019080803573ffffffffffffffffffffffffffffffffffffffff16906020019092919050505062001fec565b60405180826bffffffffffffffffffffffff19166bffffffffffffffffffffffff1916815260200191505060405180910390f35b6200064862002085565b6040518082815260200191505060405180910390f35b6200069c600480360360208110156200067657600080fd5b8101908080356bffffffffffffffffffffffff1916906020019092919050505062002092565b005b620006a862002698565b005b620006b4620027d4565b604051808273ffffffffffffffffffffffffffffffffffffffff1673ffffffffffffffffffffffffffffffffffffffff16815260200191505060405180910390f35b62000700620027fd565b604051808215151515815260200191505060405180910390f35b620007246200285d565b6040518082815260200191505060405180910390f35b6200077f600480360360208110156200075257600080fd5b81019080803573ffffffffffffffffffffffffffffffffffffffff1690602001909291905050506200286a565b005b620007bf600480360360208110156200079957600080fd5b8101908080356bffffffffffffffffffffffff19169060200190929190505050620028f5565b6040518089815260200180602001806020018060200180602001806020018881526020018060200187810387528e818151815260200191508051906020019080838360005b838110156200082157808201518184015260208101905062000804565b50505050905090810190601f1680156200084f5780820380516001836020036101000a031916815260200191505b5087810386528d818151815260200191508051906020019080838360005b838110156200088a5780820151818401526020810190506200086d565b50505050905090810190601f168015620008b85780820380516001836020036101000a031916815260200191505b5087810385528c818151815260200191508051906020019080838360005b83811015620008f3578082015181840152602081019050620008d6565b50505050905090810190601f168015620009215780820380516001836020036101000a031916815260200191505b5087810384528b818151815260200191508051906020019080838360005b838110156200095c5780820151818401526020810190506200093f565b50505050905090810190601f1680156200098a5780820380516001836020036101000a031916815260200191505b5087810383528a818151815260200191508051906020019080838360005b83811015620009c5578082015181840152602081019050620009a8565b50505050905090810190601f168015620009f35780820380516001836020036101000a031916815260200191505b50878103825288818151815260200191508051906020019080838360005b8381101562000a2e57808201518184015260208101905062000a11565b50505050905090810190601f16801562000a5c5780820380516001836020036101000a031916815260200191505b509e50505050505050505050505050505060405180910390f35b606060018054905060405190808252806020026020018201604052801562000aad5781602001602082028038833980820191505090505b50905060008090505b60018054905081101562000b36576001818154811062000ad257fe5b90600052602060002090600a020160010160009054906101000a900460601b82828151811062000afe57fe5b60200260200101906bffffffffffffffffffffffff191690816bffffffffffffffffffffffff19168152505080600101905062000ab6565b5080905090565b600062000b4a3362001fec565b905062000b566200355d565b6040518061014001604052803373ffffffffffffffffffffffffffffffffffffffff168152602001836bffffffffffffffffffffffff191681526020018b81526020018a8152602001898152602001888152602001878152602001868152602001858152602001848152509050600080905060008090505b60018054905081101562000db057836bffffffffffffffffffffffff19166001828154811062000bfa57fe5b90600052602060002090600a020160010160009054906101000a900460601b6bffffffffffffffffffffffff1916141562000da457826001828154811062000c3e57fe5b90600052602060002090600a020160008201518160000160006101000a81548173ffffffffffffffffffffffffffffffffffffffff021916908373ffffffffffffffffffffffffffffffffffffffff16021790555060208201518160010160006101000a81548173ffffffffffffffffffffffffffffffffffffffff021916908360601c021790555060408201518160020155606082015181600301908051906020019062000cef929190620035d5565b50608082015181600401908051906020019062000d0e929190620035d5565b5060a082015181600501908051906020019062000d2d929190620035d5565b5060c082015181600601908051906020019062000d4c929190620035d5565b5060e082015181600701908051906020019062000d6b929190620035d5565b50610100820151816008015561012082015181600901908051906020019062000d96929190620035d5565b509050506001915062000db0565b80600101905062000bce565b508062000f34576001829080600181540180825580915050906001820390600052602060002090600a02016000909192909190915060008201518160000160006101000a81548173ffffffffffffffffffffffffffffffffffffffff021916908373ffffffffffffffffffffffffffffffffffffffff16021790555060208201518160010160006101000a81548173ffffffffffffffffffffffffffffffffffffffff021916908360601c021790555060408201518160020155606082015181600301908051906020019062000e88929190620035d5565b50608082015181600401908051906020019062000ea7929190620035d5565b5060a082015181600501908051906020019062000ec6929190620035d5565b5060c082015181600601908051906020019062000ee5929190620035d5565b5060e082015181600701908051906020019062000f04929190620035d5565b50610100820151816008015561012082015181600901908051906020019062000f2f929190620035d5565b505050505b3373ffffffffffffffffffffffffffffffffffffffff168a6040518082805190602001908083835b6020831062000f81578051825260208201915060208101905060208303925062000f5c565b6001836020036101000a03801982511681845116808217855250505050505090500191505060405180910390208c7fc8f7534861b4830370f7e88379a1df48ef6a05cf47b4c07ed9bb79625365b55e60405160405180910390a45050505050505050505050565b606060028054806020026020016040519081016040528092919081815260200182805480156200106e57602002820191906000526020600020905b8160009054906101000a900473ffffffffffffffffffffffffffffffffffffffff1673ffffffffffffffffffffffffffffffffffffffff168152602001906001019080831162001023575b5050505050905090565b62001082620027fd565b620010f5576040517f08c379a00000000000000000000000000000000000000000000000000000000081526004018080602001828103825260208152602001807f4f776e61626c653a2063616c6c6572206973206e6f7420746865206f776e657281525060200191505060405180910390fd5b6000620011028262002e5d565b90506200110e6200355d565b600182815481106200111c57fe5b90600052602060002090600a0201604051806101400160405290816000820160009054906101000a900473ffffffffffffffffffffffffffffffffffffffff1673ffffffffffffffffffffffffffffffffffffffff1673ffffffffffffffffffffffffffffffffffffffff1681526020016001820160009054906101000a900460601b6bffffffffffffffffffffffff19166bffffffffffffffffffffffff1916815260200160028201548152602001600382018054600181600116156101000203166002900480601f016020809104026020016040519081016040528092919081815260200182805460018160011615610100020316600290048015620012685780601f106200123c5761010080835404028352916020019162001268565b820191906000526020600020905b8154815290600101906020018083116200124a57829003601f168201915b50505050508152602001600482018054600181600116156101000203166002900480601f0160208091040260200160405190810160405280929190818152602001828054600181600116156101000203166002900480156200130e5780601f10620012e2576101008083540402835291602001916200130e565b820191906000526020600020905b815481529060010190602001808311620012f057829003601f168201915b50505050508152602001600582018054600181600116156101000203166002900480601f016020809104026020016040519081016040528092919081815260200182805460018160011615610100020316600290048015620013b45780601f106200138857610100808354040283529160200191620013b4565b820191906000526020600020905b8154815290600101906020018083116200139657829003601f168201915b50505050508152602001600682018054600181600116156101000203166002900480601f0160208091040260200160405190810160405280929190818152602001828054600181600116156101000203166002900480156200145a5780601f106200142e576101008083540402835291602001916200145a565b820191906000526020600020905b8154815290600101906020018083116200143c57829003601f168201915b50505050508152602001600782018054600181600116156101000203166002900480601f016020809104026020016040519081016040528092919081815260200182805460018160011615610100020316600290048015620015005780601f10620014d45761010080835404028352916020019162001500565b820191906000526020600020905b815481529060010190602001808311620014e257829003601f168201915b5050505050815260200160088201548152602001600982018054600181600116156101000203166002900480601f016020809104026020016040519081016040528092919081815260200182805460018160011615610100020316600290048015620015b05780601f106200158457610100808354040283529160200191620015b0565b820191906000526020600020905b8154815290600101906020018083116200159257829003601f168201915b5050505050815250509050620015c68262002eec565b600081604001511415620019fa57600081600001518260200151836060015184608001518560a001518660c001518760e0015188610100015189610120015160405162001613906200365c565b808a73ffffffffffffffffffffffffffffffffffffffff1673ffffffffffffffffffffffffffffffffffffffff168152602001896bffffffffffffffffffffffff19166bffffffffffffffffffffffff1916815260200180602001806020018060200180602001806020018881526020018060200187810387528e818151815260200191508051906020019080838360005b83811015620016c2578082015181840152602081019050620016a5565b50505050905090810190601f168015620016f05780820380516001836020036101000a031916815260200191505b5087810386528d818151815260200191508051906020019080838360005b838110156200172b5780820151818401526020810190506200170e565b50505050905090810190601f168015620017595780820380516001836020036101000a031916815260200191505b5087810385528c818151815260200191508051906020019080838360005b838110156200179457808201518184015260208101905062001777565b50505050905090810190601f168015620017c25780820380516001836020036101000a031916815260200191505b5087810384528b818151815260200191508051906020019080838360005b83811015620017fd578082015181840152602081019050620017e0565b50505050905090810190601f1680156200182b5780820380516001836020036101000a031916815260200191505b5087810383528a818151815260200191508051906020019080838360005b838110156200186657808201518184015260208101905062001849565b50505050905090810190601f168015620018945780820380516001836020036101000a031916815260200191505b50878103825288818151815260200191508051906020019080838360005b83811015620018cf578082015181840152602081019050620018b2565b50505050905090810190601f168015620018fd5780820380516001836020036101000a031916815260200191505b509f50505050505050505050505050505050604051809103906000f0801580156200192c573d6000803e3d6000fd5b50905060028190806001815401808255809150509060018203906000526020600020016000909192909190916101000a81548173ffffffffffffffffffffffffffffffffffffffff021916908373ffffffffffffffffffffffffffffffffffffffff16021790555050816000015173ffffffffffffffffffffffffffffffffffffffff168173ffffffffffffffffffffffffffffffffffffffff167f8322aca383e0b6ac5377a0e16ba66f8905a154d8bc387636b2e8dc7aabc1970160405160405180910390a35062001f34565b60018160400151141562001e7a5762001a178160200151620031f7565b91506002828154811062001a2757fe5b9060005260206000200160009054906101000a900473ffffffffffffffffffffffffffffffffffffffff1673ffffffffffffffffffffffffffffffffffffffff1663c72b268482600001518360200151846060015185608001518660a001518760c001518860e001518961010001518a61012001516040518a63ffffffff1660e01b8152600401808a73ffffffffffffffffffffffffffffffffffffffff1673ffffffffffffffffffffffffffffffffffffffff168152602001896bffffffffffffffffffffffff19166bffffffffffffffffffffffff1916815260200180602001806020018060200180602001806020018881526020018060200187810387528e818151815260200191508051906020019080838360005b8381101562001b5d57808201518184015260208101905062001b40565b50505050905090810190601f16801562001b8b5780820380516001836020036101000a031916815260200191505b5087810386528d818151815260200191508051906020019080838360005b8381101562001bc657808201518184015260208101905062001ba9565b50505050905090810190601f16801562001bf45780820380516001836020036101000a031916815260200191505b5087810385528c818151815260200191508051906020019080838360005b8381101562001c2f57808201518184015260208101905062001c12565b50505050905090810190601f16801562001c5d5780820380516001836020036101000a031916815260200191505b5087810384528b818151815260200191508051906020019080838360005b8381101562001c9857808201518184015260208101905062001c7b565b50505050905090810190601f16801562001cc65780820380516001836020036101000a031916815260200191505b5087810383528a818151815260200191508051906020019080838360005b8381101562001d0157808201518184015260208101905062001ce4565b50505050905090810190601f16801562001d2f5780820380516001836020036101000a031916815260200191505b50878103825288818151815260200191508051906020019080838360005b8381101562001d6a57808201518184015260208101905062001d4d565b50505050905090810190601f16801562001d985780820380516001836020036101000a031916815260200191505b509f50505050505050505050505050505050600060405180830381600087803b15801562001dc557600080fd5b505af115801562001dda573d6000803e3d6000fd5b50505050806000015173ffffffffffffffffffffffffffffffffffffffff166002838154811062001e0757fe5b9060005260206000200160009054906101000a900473ffffffffffffffffffffffffffffffffffffffff1673ffffffffffffffffffffffffffffffffffffffff167f87304f6c2383083a807b726dddf1682bf5741d404b0100c067872e2620af058960405160405180910390a362001f33565b62001e898160200151620031f7565b915060006002838154811062001e9b57fe5b9060005260206000200160009054906101000a900473ffffffffffffffffffffffffffffffffffffffff16905062001ed38362003315565b816000015173ffffffffffffffffffffffffffffffffffffffff168173ffffffffffffffffffffffffffffffffffffffff167f4fa5e739dad84e6f8ec2e4882cb531697df5121017661c264489ff446a9ebff260405160405180910390a3505b5b806000015173ffffffffffffffffffffffffffffffffffffffff1681606001516040518082805190602001908083835b6020831062001f89578051825260208201915060208101905060208303925062001f64565b6001836020036101000a038019825116818451168082178552505050505050905001915050604051809103902082604001517fa8b4e37df2ef904076c87a1e7c63e7b56959f28d399cefa2ac5462c15944264560405160405180910390a4505050565b60008060008090505b60148110156200207b576008810260ff60f81b8260130360080260020a8673ffffffffffffffffffffffffffffffffffffffff16816200203157fe5b0460f81b167effffffffffffffffffffffffffffffffffffffffffffffffffffffffffffff19166bffffffffffffffffffffffff1916901c82179150808060010191505062001ff5565b5080915050919050565b6000600180549050905090565b6200209c620027fd565b6200210f576040517f08c379a00000000000000000000000000000000000000000000000000000000081526004018080602001828103825260208152602001807f4f776e61626c653a2063616c6c6572206973206e6f7420746865206f776e657281525060200191505060405180910390fd5b60006200211c8262002e5d565b9050620021286200355d565b600182815481106200213657fe5b90600052602060002090600a0201604051806101400160405290816000820160009054906101000a900473ffffffffffffffffffffffffffffffffffffffff1673ffffffffffffffffffffffffffffffffffffffff1673ffffffffffffffffffffffffffffffffffffffff1681526020016001820160009054906101000a900460601b6bffffffffffffffffffffffff19166bffffffffffffffffffffffff1916815260200160028201548152602001600382018054600181600116156101000203166002900480601f016020809104026020016040519081016040528092919081815260200182805460018160011615610100020316600290048015620022825780601f10620022565761010080835404028352916020019162002282565b820191906000526020600020905b8154815290600101906020018083116200226457829003601f168201915b50505050508152602001600482018054600181600116156101000203166002900480601f016020809104026020016040519081016040528092919081815260200182805460018160011615610100020316600290048015620023285780601f10620022fc5761010080835404028352916020019162002328565b820191906000526020600020905b8154815290600101906020018083116200230a57829003601f168201915b50505050508152602001600582018054600181600116156101000203166002900480601f016020809104026020016040519081016040528092919081815260200182805460018160011615610100020316600290048015620023ce5780601f10620023a257610100808354040283529160200191620023ce565b820191906000526020600020905b815481529060010190602001808311620023b057829003601f168201915b50505050508152602001600682018054600181600116156101000203166002900480601f016020809104026020016040519081016040528092919081815260200182805460018160011615610100020316600290048015620024745780601f10620024485761010080835404028352916020019162002474565b820191906000526020600020905b8154815290600101906020018083116200245657829003601f168201915b50505050508152602001600782018054600181600116156101000203166002900480601f0160208091040260200160405190810160405280929190818152602001828054600181600116156101000203166002900480156200251a5780601f10620024ee576101008083540402835291602001916200251a565b820191906000526020600020905b815481529060010190602001808311620024fc57829003601f168201915b5050505050815260200160088201548152602001600982018054600181600116156101000203166002900480601f016020809104026020016040519081016040528092919081815260200182805460018160011615610100020316600290048015620025ca5780601f106200259e57610100808354040283529160200191620025ca565b820191906000526020600020905b815481529060010190602001808311620025ac57829003601f168201915b5050505050815250509050620025e08262002eec565b806000015173ffffffffffffffffffffffffffffffffffffffff1681606001516040518082805190602001908083835b6020831062002635578051825260208201915060208101905060208303925062002610565b6001836020036101000a038019825116818451168082178552505050505050905001915050604051809103902082604001517fded73278e84598571a5ea34853a7bf3ffc7d6f14e770b10aae9ef124947386d160405160405180910390a4505050565b620026a2620027fd565b62002715576040517f08c379a00000000000000000000000000000000000000000000000000000000081526004018080602001828103825260208152602001807f4f776e61626c653a2063616c6c6572206973206e6f7420746865206f776e657281525060200191505060405180910390fd5b600073ffffffffffffffffffffffffffffffffffffffff166000809054906101000a900473ffffffffffffffffffffffffffffffffffffffff1673ffffffffffffffffffffffffffffffffffffffff167f8be0079c531659141344cd1fd0a4f28419497f9722a3daafe3b4186f6b6457e060405160405180910390a360008060006101000a81548173ffffffffffffffffffffffffffffffffffffffff021916908373ffffffffffffffffffffffffffffffffffffffff160217905550565b60008060009054906101000a900473ffffffffffffffffffffffffffffffffffffffff16905090565b60008060009054906101000a900473ffffffffffffffffffffffffffffffffffffffff1673ffffffffffffffffffffffffffffffffffffffff16620028416200340f565b73ffffffffffffffffffffffffffffffffffffffff1614905090565b6000600280549050905090565b62002874620027fd565b620028e7576040517f08c379a00000000000000000000000000000000000000000000000000000000081526004018080602001828103825260208152602001807f4f776e61626c653a2063616c6c6572206973206e6f7420746865206f776e657281525060200191505060405180910390fd5b620028f28162003417565b50565b600060608060608060606000606060008090505b60018054905081101562002e4757896bffffffffffffffffffffffff1916600182815481106200293557fe5b90600052602060002090600a020160010160009054906101000a900460601b6bffffffffffffffffffffffff1916141562002e3b57600181815481106200297857fe5b90600052602060002090600a020160020154600182815481106200299857fe5b90600052602060002090600a020160030160018381548110620029b757fe5b90600052602060002090600a020160040160018481548110620029d657fe5b90600052602060002090600a020160050160018581548110620029f557fe5b90600052602060002090600a02016006016001868154811062002a1457fe5b90600052602060002090600a02016007016001878154811062002a3357fe5b90600052602060002090600a0201600801546001888154811062002a5357fe5b90600052602060002090600a0201600901868054600181600116156101000203166002900480601f01602080910402602001604051908101604052809291908181526020018280546001816001161561010002031660029004801562002afd5780601f1062002ad15761010080835404028352916020019162002afd565b820191906000526020600020905b81548152906001019060200180831162002adf57829003601f168201915b50505050509650858054600181600116156101000203166002900480601f01602080910402602001604051908101604052809291908181526020018280546001816001161561010002031660029004801562002b9d5780601f1062002b715761010080835404028352916020019162002b9d565b820191906000526020600020905b81548152906001019060200180831162002b7f57829003601f168201915b50505050509550848054600181600116156101000203166002900480601f01602080910402602001604051908101604052809291908181526020018280546001816001161561010002031660029004801562002c3d5780601f1062002c115761010080835404028352916020019162002c3d565b820191906000526020600020905b81548152906001019060200180831162002c1f57829003601f168201915b50505050509450838054600181600116156101000203166002900480601f01602080910402602001604051908101604052809291908181526020018280546001816001161561010002031660029004801562002cdd5780601f1062002cb15761010080835404028352916020019162002cdd565b820191906000526020600020905b81548152906001019060200180831162002cbf57829003601f168201915b50505050509350828054600181600116156101000203166002900480601f01602080910402602001604051908101604052809291908181526020018280546001816001161561010002031660029004801562002d7d5780601f1062002d515761010080835404028352916020019162002d7d565b820191906000526020600020905b81548152906001019060200180831162002d5f57829003601f168201915b50505050509250808054600181600116156101000203166002900480601f01602080910402602001604051908101604052809291908181526020018280546001816001161561010002031660029004801562002e1d5780601f1062002df15761010080835404028352916020019162002e1d565b820191906000526020600020905b81548152906001019060200180831162002dff57829003601f168201915b50505050509050985098509850985098509850985098505062002e52565b80600101905062002909565b50600062002e5157fe5b5b919395975091939597565b600080600090505b60018054905081101562002edc57826bffffffffffffffffffffffff19166001828154811062002e9157fe5b90600052602060002090600a020160010160009054906101000a900460601b6bffffffffffffffffffffffff1916141562002ed0578091505062002ee7565b80600101905062002e65565b50600062002ee657fe5b5b919050565b60008190505b600180549050600182011015620031045760018082018154811062002f1357fe5b90600052602060002090600a02016001828154811062002f2f57fe5b90600052602060002090600a02016000820160009054906101000a900473ffffffffffffffffffffffffffffffffffffffff168160000160006101000a81548173ffffffffffffffffffffffffffffffffffffffff021916908373ffffffffffffffffffffffffffffffffffffffff1602179055506001820160009054906101000a900460601b8160010160006101000a81548173ffffffffffffffffffffffffffffffffffffffff021916908360601c02179055506002820154816002015560038201816003019080546001816001161561010002031660029004620030189291906200366a565b5060048201816004019080546001816001161561010002031660029004620030429291906200366a565b50600582018160050190805460018160011615610100020316600290046200306c9291906200366a565b5060068201816006019080546001816001161561010002031660029004620030969291906200366a565b5060078201816007019080546001816001161561010002031660029004620030c09291906200366a565b506008820154816008015560098201816009019080546001816001161561010002031660029004620030f49291906200366a565b5090505080600101905062002ef2565b5060018054806200311157fe5b60019003818190600052602060002090600a0201600080820160006101000a81549073ffffffffffffffffffffffffffffffffffffffff02191690556001820160006101000a81549073ffffffffffffffffffffffffffffffffffffffff021916905560028201600090556003820160006200318e9190620036f8565b600482016000620031a09190620036f8565b600582016000620031b29190620036f8565b600682016000620031c49190620036f8565b600782016000620031d69190620036f8565b6008820160009055600982016000620031f09190620036f8565b5050905550565b600080600090505b6002805490508110156200330557826bffffffffffffffffffffffff1916600282815481106200322b57fe5b9060005260206000200160009054906101000a900473ffffffffffffffffffffffffffffffffffffffff1673ffffffffffffffffffffffffffffffffffffffff1663af640d0f6040518163ffffffff1660e01b815260040160206040518083038186803b1580156200329c57600080fd5b505afa158015620032b1573d6000803e3d6000fd5b505050506040513d6020811015620032c857600080fd5b81019080805190602001909291905050506bffffffffffffffffffffffff19161415620032f9578091505062003310565b806001019050620031ff565b5060006200330f57fe5b5b919050565b60008190505b600280549050600182011015620033ca57600260018201815481106200333d57fe5b9060005260206000200160009054906101000a900473ffffffffffffffffffffffffffffffffffffffff16600282815481106200337657fe5b9060005260206000200160006101000a81548173ffffffffffffffffffffffffffffffffffffffff021916908373ffffffffffffffffffffffffffffffffffffffff1602179055508060010190506200331b565b506002805480620033d757fe5b6001900381819060005260206000200160006101000a81549073ffffffffffffffffffffffffffffffffffffffff0219169055905550565b600033905090565b600073ffffffffffffffffffffffffffffffffffffffff168173ffffffffffffffffffffffffffffffffffffffff1614156200349f576040517f08c379a0000000000000000000000000000000000000000000000000000000008152600401808060200182810382526026815260200180620058166026913960400191505060405180910390fd5b8073ffffffffffffffffffffffffffffffffffffffff166000809054906101000a900473ffffffffffffffffffffffffffffffffffffffff1673ffffffffffffffffffffffffffffffffffffffff167f8be0079c531659141344cd1fd0a4f28419497f9722a3daafe3b4186f6b6457e060405160405180910390a3806000806101000a81548173ffffffffffffffffffffffffffffffffffffffff021916908373ffffffffffffffffffffffffffffffffffffffff16021790555050565b604051806101400160405280600073ffffffffffffffffffffffffffffffffffffffff16815260200160006bffffffffffffffffffffffff1916815260200160008152602001606081526020016060815260200160608152602001606081526020016060815260200160008152602001606081525090565b828054600181600116156101000203166002900490600052602060002090601f016020900481019282601f106200361857805160ff191683800117855562003649565b8280016001018555821562003649579182015b82811115620036485782518255916020019190600101906200362b565b5b50905062003658919062003744565b5090565b6120a9806200376d83390190565b828054600181600116156101000203166002900490600052602060002090601f016020900481019282601f10620036a55780548555620036e5565b82800160010185558215620036e557600052602060002091601f016020900482015b82811115620036e4578254825591600101919060010190620036c7565b5b509050620036f4919062003744565b5090565b50805460018160011615610100020316600290046000825580601f1062003720575062003741565b601f01602090049060005260206000209081019062003740919062003744565b5b50565b6200376991905b80821115620037655760008160009055506001016200374b565b5090565b9056fe60806040523480156200001157600080fd5b50604051620020a9380380620020a983398181016040526101208110156200003857600080fd5b810190808051906020019092919080519060200190929190805160405193929190846401000000008211156200006d57600080fd5b838201915060208201858111156200008457600080fd5b8251866001820283011164010000000082111715620000a257600080fd5b8083526020830192505050908051906020019080838360005b83811015620000d8578082015181840152602081019050620000bb565b50505050905090810190601f168015620001065780820380516001836020036101000a031916815260200191505b50604052602001805160405193929190846401000000008211156200012a57600080fd5b838201915060208201858111156200014157600080fd5b82518660018202830111640100000000821117156200015f57600080fd5b8083526020830192505050908051906020019080838360005b838110156200019557808201518184015260208101905062000178565b50505050905090810190601f168015620001c35780820380516001836020036101000a031916815260200191505b5060405260200180516040519392919084640100000000821115620001e757600080fd5b83820191506020820185811115620001fe57600080fd5b82518660018202830111640100000000821117156200021c57600080fd5b8083526020830192505050908051906020019080838360005b838110156200025257808201518184015260208101905062000235565b50505050905090810190601f168015620002805780820380516001836020036101000a031916815260200191505b5060405260200180516040519392919084640100000000821115620002a457600080fd5b83820191506020820185811115620002bb57600080fd5b8251866001820283011164010000000082111715620002d957600080fd5b8083526020830192505050908051906020019080838360005b838110156200030f578082015181840152602081019050620002f2565b50505050905090810190601f1680156200033d5780820380516001836020036101000a031916815260200191505b50604052602001805160405193929190846401000000008211156200036157600080fd5b838201915060208201858111156200037857600080fd5b82518660018202830111640100000000821117156200039657600080fd5b8083526020830192505050908051906020019080838360005b83811015620003cc578082015181840152602081019050620003af565b50505050905090810190601f168015620003fa5780820380516001836020036101000a031916815260200191505b5060405260200180519060200190929190805160405193929190846401000000008211156200042857600080fd5b838201915060208201858111156200043f57600080fd5b82518660018202830111640100000000821117156200045d57600080fd5b8083526020830192505050908051906020019080838360005b838110156200049357808201518184015260208101905062000476565b50505050905090810190601f168015620004c15780820380516001836020036101000a031916815260200191505b50604052505050620004d8620005bb60201b60201c565b6000806101000a81548173ffffffffffffffffffffffffffffffffffffffff021916908373ffffffffffffffffffffffffffffffffffffffff1602179055506000809054906101000a900473ffffffffffffffffffffffffffffffffffffffff1673ffffffffffffffffffffffffffffffffffffffff16600073ffffffffffffffffffffffffffffffffffffffff167f8be0079c531659141344cd1fd0a4f28419497f9722a3daafe3b4186f6b6457e060405160405180910390a3620005ac898989898989898989620005c360201b60201c565b5050505050505050506200089f565b600033905090565b620005d489620006aa60201b60201c565b87600160006101000a81548173ffffffffffffffffffffffffffffffffffffffff021916908360601c021790555086600290805190602001906200061a929190620007f0565b50856003908051906020019062000633929190620007f0565b5084600490805190602001906200064c929190620007f0565b50836005908051906020019062000665929190620007f0565b5082600690805190602001906200067e929190620007f0565b508160078190555080600890805190602001906200069e929190620007f0565b50505050505050505050565b600073ffffffffffffffffffffffffffffffffffffffff168173ffffffffffffffffffffffffffffffffffffffff16141562000732576040517f08c379a0000000000000000000000000000000000000000000000000000000008152600401808060200182810382526026815260200180620020836026913960400191505060405180910390fd5b8073ffffffffffffffffffffffffffffffffffffffff166000809054906101000a900473ffffffffffffffffffffffffffffffffffffffff1673ffffffffffffffffffffffffffffffffffffffff167f8be0079c531659141344cd1fd0a4f28419497f9722a3daafe3b4186f6b6457e060405160405180910390a3806000806101000a81548173ffffffffffffffffffffffffffffffffffffffff021916908373ffffffffffffffffffffffffffffffffffffffff16021790555050565b828054600181600116156101000203166002900490600052602060002090601f016020900481019282601f106200083357805160ff191683800117855562000864565b8280016001018555821562000864579182015b828111156200086357825182559160200191906001019062000846565b5b50905062000873919062000877565b5090565b6200089c91905b80821115620008985760008160009055506001016200087e565b5090565b90565b6117d480620008af6000396000f3fe608060405234801561001057600080fd5b50600436106101005760003560e01c80638f32d59b11610097578063c72b268411610066578063c72b2684146105de578063cc28783a146109d0578063f2fde38b146109ee578063f851a44014610a3257610100565b80638f32d59b1461047a5780639284f4971461049c5780639a68308f1461051f578063af640d0f146105a257610100565b80633293f47f116100d35780633293f47f146102de5780634d6f252414610361578063715018a6146104265780638da5cb5b1461043057610100565b806306fdde03146101055780630ef92b7914610188578063120d3f2c1461023d57806316f0115b1461025b575b600080fd5b61010d610ab5565b6040518080602001828103825283818151815260200191508051906020019080838360005b8381101561014d578082015181840152602081019050610132565b50505050905090810190601f16801561017a5780820380516001836020036101000a031916815260200191505b509250505060405180910390f35b6101b46004803603602081101561019e57600080fd5b8101908080359060200190929190505050610b53565b6040518080602001848152602001838152602001828103825285818151815260200191508051906020019080838360005b838110156102005780820151818401526020810190506101e5565b50505050905090810190601f16801561022d5780820380516001836020036101000a031916815260200191505b5094505050505060405180910390f35b610245610cf7565b6040518082815260200191505060405180910390f35b610263610cfd565b6040518080602001828103825283818151815260200191508051906020019080838360005b838110156102a3578082015181840152602081019050610288565b50505050905090810190601f1680156102d05780820380516001836020036101000a031916815260200191505b509250505060405180910390f35b6102e6610d9b565b6040518080602001828103825283818151815260200191508051906020019080838360005b8381101561032657808201518184015260208101905061030b565b50505050905090810190601f1680156103535780820380516001836020036101000a031916815260200191505b509250505060405180910390f35b6104246004803603604081101561037757600080fd5b810190808035906020019064010000000081111561039457600080fd5b8201836020820111156103a657600080fd5b803590602001918460018302840111640100000000831117156103c857600080fd5b91908080601f016020809104026020016040519081016040528093929190818152602001838380828437600081840152601f19601f82011690508083019250505050505050919291929080359060200190929190505050610e39565b005b61042e610fdb565b005b610438611114565b604051808273ffffffffffffffffffffffffffffffffffffffff1673ffffffffffffffffffffffffffffffffffffffff16815260200191505060405180910390f35b61048261113d565b604051808215151515815260200191505060405180910390f35b6104a461119b565b6040518080602001828103825283818151815260200191508051906020019080838360005b838110156104e45780820151818401526020810190506104c9565b50505050905090810190601f1680156105115780820380516001836020036101000a031916815260200191505b509250505060405180910390f35b610527611239565b6040518080602001828103825283818151815260200191508051906020019080838360005b8381101561056757808201518184015260208101905061054c565b50505050905090810190601f1680156105945780820380516001836020036101000a031916815260200191505b509250505060405180910390f35b6105aa6112d7565b60405180826bffffffffffffffffffffffff19166bffffffffffffffffffffffff1916815260200191505060405180910390f35b6109ce60048036036101208110156105f557600080fd5b81019080803573ffffffffffffffffffffffffffffffffffffffff16906020019092919080356bffffffffffffffffffffffff191690602001909291908035906020019064010000000081111561064b57600080fd5b82018360208201111561065d57600080fd5b8035906020019184600183028401116401000000008311171561067f57600080fd5b91908080601f016020809104026020016040519081016040528093929190818152602001838380828437600081840152601f19601f820116905080830192505050505050509192919290803590602001906401000000008111156106e257600080fd5b8201836020820111156106f457600080fd5b8035906020019184600183028401116401000000008311171561071657600080fd5b91908080601f016020809104026020016040519081016040528093929190818152602001838380828437600081840152601f19601f8201169050808301925050505050505091929192908035906020019064010000000081111561077957600080fd5b82018360208201111561078b57600080fd5b803590602001918460018302840111640100000000831117156107ad57600080fd5b91908080601f016020809104026020016040519081016040528093929190818152602001838380828437600081840152601f19601f8201169050808301925050505050505091929192908035906020019064010000000081111561081057600080fd5b82018360208201111561082257600080fd5b8035906020019184600183028401116401000000008311171561084457600080fd5b91908080601f016020809104026020016040519081016040528093929190818152602001838380828437600081840152601f19601f820116905080830192505050505050509192919290803590602001906401000000008111156108a757600080fd5b8201836020820111156108b957600080fd5b803590602001918460018302840111640100000000831117156108db57600080fd5b91908080601f016020809104026020016040519081016040528093929190818152602001838380828437600081840152601f19601f820116905080830192505050505050509192919290803590602001909291908035906020019064010000000081111561094857600080fd5b82018360208201111561095a57600080fd5b8035906020019184600183028401116401000000008311171561097c57600080fd5b91908080601f016020809104026020016040519081016040528093929190818152602001838380828437600081840152601f19601f8201169050808301925050505050505091929192905050506112ea565b005b6109d86113bd565b6040518082815260200191505060405180910390f35b610a3060048036036020811015610a0457600080fd5b81019080803573ffffffffffffffffffffffffffffffffffffffff1690602001909291905050506113ca565b005b610a3a611450565b6040518080602001828103825283818151815260200191508051906020019080838360005b83811015610a7a578082015181840152602081019050610a5f565b50505050905090810190601f168015610aa75780820380516001836020036101000a031916815260200191505b509250505060405180910390f35b60028054600181600116156101000203166002900480601f016020809104026020016040519081016040528092919081815260200182805460018160011615610100020316600290048015610b4b5780601f10610b2057610100808354040283529160200191610b4b565b820191906000526020600020905b815481529060010190602001808311610b2e57829003601f168201915b505050505081565b60606000806009805490508410610bd2576040517f08c379a000000000000000000000000000000000000000000000000000000000815260040180806020018281038252601c8152602001807f54686520696e6465782065786365656473207468652072616e67652e0000000081525060200191505060405180910390fd5b60098481548110610bdf57fe5b90600052602060002090600202016001015491506009805490506001850114610c295760096001850181548110610c1257fe5b906000526020600020906002020160010154610c2c565b60005b905060098481548110610c3b57fe5b90600052602060002090600202016000018282828054600181600116156101000203166002900480601f016020809104026020016040519081016040528092919081815260200182805460018160011615610100020316600290048015610ce35780601f10610cb857610100808354040283529160200191610ce3565b820191906000526020600020905b815481529060010190602001808311610cc657829003601f168201915b505050505092509250925092509193909250565b60075481565b60088054600181600116156101000203166002900480601f016020809104026020016040519081016040528092919081815260200182805460018160011615610100020316600290048015610d935780601f10610d6857610100808354040283529160200191610d93565b820191906000526020600020905b815481529060010190602001808311610d7657829003601f168201915b505050505081565b60068054600181600116156101000203166002900480601f016020809104026020016040519081016040528092919081815260200182805460018160011615610100020316600290048015610e315780601f10610e0657610100808354040283529160200191610e31565b820191906000526020600020905b815481529060010190602001808311610e1457829003601f168201915b505050505081565b610e4161113d565b610eb3576040517f08c379a00000000000000000000000000000000000000000000000000000000081526004018080602001828103825260208152602001807f4f776e61626c653a2063616c6c6572206973206e6f7420746865206f776e657281525060200191505060405180910390fd5b610ebb61163a565b6040518060400160405280848152602001838152509050600981908060018154018082558091505090600182039060005260206000209060020201600090919290919091506000820151816000019080519060200190610f1c929190611654565b50602082015181600101555050507f297bb7b7bd6d1d9cb476ce488f679c6a4e15b86b4049072170f59f2b1a315bb0816000015182602001516040518080602001838152602001828103825284818151815260200191508051906020019080838360005b83811015610f9b578082015181840152602081019050610f80565b50505050905090810190601f168015610fc85780820380516001836020036101000a031916815260200191505b50935050505060405180910390a1505050565b610fe361113d565b611055576040517f08c379a00000000000000000000000000000000000000000000000000000000081526004018080602001828103825260208152602001807f4f776e61626c653a2063616c6c6572206973206e6f7420746865206f776e657281525060200191505060405180910390fd5b600073ffffffffffffffffffffffffffffffffffffffff166000809054906101000a900473ffffffffffffffffffffffffffffffffffffffff1673ffffffffffffffffffffffffffffffffffffffff167f8be0079c531659141344cd1fd0a4f28419497f9722a3daafe3b4186f6b6457e060405160405180910390a360008060006101000a81548173ffffffffffffffffffffffffffffffffffffffff021916908373ffffffffffffffffffffffffffffffffffffffff160217905550565b60008060009054906101000a900473ffffffffffffffffffffffffffffffffffffffff16905090565b60008060009054906101000a900473ffffffffffffffffffffffffffffffffffffffff1673ffffffffffffffffffffffffffffffffffffffff1661117f6114ee565b73ffffffffffffffffffffffffffffffffffffffff1614905090565b60048054600181600116156101000203166002900480601f0160208091040260200160405190810160405280929190818152602001828054600181600116156101000203166002900480156112315780601f1061120657610100808354040283529160200191611231565b820191906000526020600020905b81548152906001019060200180831161121457829003601f168201915b505050505081565b60058054600181600116156101000203166002900480601f0160208091040260200160405190810160405280929190818152602001828054600181600116156101000203166002900480156112cf5780601f106112a4576101008083540402835291602001916112cf565b820191906000526020600020905b8154815290600101906020018083116112b257829003601f168201915b505050505081565b600160009054906101000a900460601b81565b6112f3896114f6565b87600160006101000a81548173ffffffffffffffffffffffffffffffffffffffff021916908360601c021790555086600290805190602001906113379291906116d4565b50856003908051906020019061134e9291906116d4565b5084600490805190602001906113659291906116d4565b50836005908051906020019061137c9291906116d4565b5082600690805190602001906113939291906116d4565b508160078190555080600890805190602001906113b19291906116d4565b50505050505050505050565b6000600980549050905090565b6113d261113d565b611444576040517f08c379a00000000000000000000000000000000000000000000000000000000081526004018080602001828103825260208152602001807f4f776e61626c653a2063616c6c6572206973206e6f7420746865206f776e657281525060200191505060405180910390fd5b61144d816114f6565b50565b60038054600181600116156101000203166002900480601f0160208091040260200160405190810160405280929190818152602001828054600181600116156101000203166002900480156114e65780601f106114bb576101008083540402835291602001916114e6565b820191906000526020600020905b8154815290600101906020018083116114c957829003601f168201915b505050505081565b600033905090565b600073ffffffffffffffffffffffffffffffffffffffff168173ffffffffffffffffffffffffffffffffffffffff16141561157c576040517f08c379a000000000000000000000000000000000000000000000000000000000815260040180806020018281038252602681526020018061177a6026913960400191505060405180910390fd5b8073ffffffffffffffffffffffffffffffffffffffff166000809054906101000a900473ffffffffffffffffffffffffffffffffffffffff1673ffffffffffffffffffffffffffffffffffffffff167f8be0079c531659141344cd1fd0a4f28419497f9722a3daafe3b4186f6b6457e060405160405180910390a3806000806101000a81548173ffffffffffffffffffffffffffffffffffffffff021916908373ffffffffffffffffffffffffffffffffffffffff16021790555050565b604051806040016040528060608152602001600081525090565b828054600181600116156101000203166002900490600052602060002090601f016020900481019282601f1061169557805160ff19168380011785556116c3565b828001600101855582156116c3579182015b828111156116c25782518255916020019190600101906116a7565b5b5090506116d09190611754565b5090565b828054600181600116156101000203166002900490600052602060002090601f016020900481019282601f1061171557805160ff1916838001178555611743565b82800160010185558215611743579182015b82811115611742578251825591602001919060010190611727565b5b5090506117509190611754565b5090565b61177691905b8082111561177257600081600090555060010161175a565b5090565b9056fe4f776e61626c653a206e6577206f776e657220697320746865207a65726f2061646472657373a265627a7a72315820179c4ec3bfa80cda53f0fde15dc7b73af009593144e565d34e376f0dac0d495164736f6c634300051000324f776e61626c653a206e6577206f776e657220697320746865207a65726f20616464726573734f776e61626c653a206e6577206f776e657220697320746865207a65726f2061646472657373a265627a7a723158207669d00f308c05856dc26bbfa535be97524e139c4163bb77c611e2f39408c5ed64736f6c634300051000324f776e61626c653a206e6577206f776e657220697320746865207a65726f2061646472657373",
  "source": "pragma solidity >=0.4.21 <0.7.0;\n\nimport \"openzeppelin-solidity/contracts/ownership/Ownable.sol\";\n\nimport \"./NIDOrg.sol\";\n\n\ncontract NIDAdmin is Ownable {\n\n    struct OrgRequest {\n        address owner;\n        bytes20 id;\n        uint256 reqType;\n        string name;\n        string admin;\n        string phone;\n        string mail;\n        string nidAddr;\n        uint256 nidPort;\n        string pool;\n    }\n\n    OrgRequest[] private _reqs;\n    NIDOrg[] private _orgs;\n\n    // events\n    event OrgRequestSubmitted(uint256 indexed reqType, string indexed orgName, address indexed account);\n    event OrgRequestApproved(uint256 indexed reqType, string indexed orgName, address indexed account);\n    event OrgRequestRejected(uint256 indexed reqType, string indexed orgName, address indexed account);\n    event OrgCreated(NIDOrg indexed org, address indexed account);\n    event OrgUpdated(NIDOrg indexed org, address indexed account);\n    event OrgDeleted(NIDOrg indexed org, address indexed account);\n\n    constructor() public {\n        _transferOwnership(msg.sender);\n    }\n\n    function toBytes(address x) public pure returns (bytes20) {\n        bytes20 b;\n        for (uint i = 0; i < 20; i++) {\n            b |= bytes20(byte(uint8(uint256(x) / (2 ** (8 * (19 - i))))) & 0xFF) >> (i * 8);\n        }\n        return b;\n    }\n\n    function createOrgRequest(\n        uint256 _reqType,\n        string memory _name,\n        string memory _admin,\n        string memory _phone,\n        string memory _mail,\n        string memory _nidAddr,\n        uint256 _nidPort,\n        string memory _pool\n    )\n        public\n    {\n        bytes20 id = toBytes(msg.sender);\n        OrgRequest memory req = OrgRequest(\n            msg.sender,\n            id,\n            _reqType,\n            _name,\n            _admin,\n            _phone,\n            _mail,\n            _nidAddr,\n            _nidPort,\n            _pool\n        );\n        bool applied = false;\n        for (uint256 i = 0; i < _reqs.length; ++i) {\n            if (_reqs[i].id == id) {\n                _reqs[i] = req;\n                applied = true;\n                break;\n            }\n        }\n        if (!applied) {\n            _reqs.push(req);\n        }\n        emit OrgRequestSubmitted(_reqType, _name, msg.sender);\n    }\n\n    function requestDetailQuery(bytes20 id) public view returns (\n        uint256 reqType,\n        string memory name,\n        string memory admin,\n        string memory phone,\n        string memory mail,\n        string memory nidAddr,\n        uint256 nidPort,\n        string memory pool\n    ) {\n        for (uint256 i = 0; i < _reqs.length; ++i) {\n            if (_reqs[i].id == id) {\n                return (\n                    _reqs[i].reqType,\n                    _reqs[i].name,\n                    _reqs[i].admin,\n                    _reqs[i].phone,\n                    _reqs[i].mail,\n                    _reqs[i].nidAddr,\n                    _reqs[i].nidPort,\n                    _reqs[i].pool\n                );\n            }\n        }\n        assert(false);\n    }\n\n    function requestIdsQuery() public view returns (bytes20[] memory ids) {\n        ids = new bytes20[](_reqs.length);\n        for (uint256 i = 0; i < _reqs.length; ++i) {\n            ids[i] = _reqs[i].id;\n        }\n        return ids;\n    }\n\n    function requestCount() public view returns (uint256) {\n        return _reqs.length;\n    }\n\n    function orgQuery() public view returns (NIDOrg[] memory) {\n        return _orgs;\n    }\n\n    function orgCount() public view returns (uint256) {\n        return _orgs.length;\n    }\n\n    function findIndexFromReqs(bytes20 id) private view returns (uint256){\n        for (uint256 i = 0; i < _reqs.length; ++i) {\n            if (_reqs[i].id == id) {\n                return i;\n            }\n        }\n        assert(false);\n    }\n\n    function removeFromReqs(uint256 index) private {\n        for (uint256 i = index; i + 1 < _reqs.length; ++i) {\n            _reqs[i] = _reqs[i + 1];\n        }\n        _reqs.pop();\n    }\n\n    function findIndexFromOrgs(bytes20 id) private view returns (uint256){\n        for (uint256 i = 0; i < _orgs.length; ++i) {\n            if (_orgs[i].id() == id) {\n                return i;\n            }\n        }\n        assert(false);\n    }\n\n    function removeFromOrgs(uint256 index) private {\n        for (uint256 i = index; i + 1 < _orgs.length; ++i) {\n            _orgs[i] = _orgs[i + 1];\n        }\n        _orgs.pop();\n    }\n\n    function requestApprove(bytes20 id) public onlyOwner {\n        uint256 index = findIndexFromReqs(id);\n        OrgRequest memory req = _reqs[index];\n        removeFromReqs(index);\n        if (req.reqType == 0) {\n            NIDOrg org = new NIDOrg(\n                req.owner,\n                req.id,\n                req.name,\n                req.admin,\n                req.phone,\n                req.mail,\n                req.nidAddr,\n                req.nidPort,\n                req.pool\n            );\n            _orgs.push(org);\n            emit OrgCreated(org, req.owner);\n        } else if (req.reqType == 1) {\n            index = findIndexFromOrgs(req.id);\n            _orgs[index].updateOrg(\n                req.owner,\n                req.id,\n                req.name,\n                req.admin,\n                req.phone,\n                req.mail,\n                req.nidAddr,\n                req.nidPort,\n                req.pool\n            );\n            emit OrgUpdated(_orgs[index], req.owner);\n        } else {\n            index = findIndexFromOrgs(req.id);\n            NIDOrg org = _orgs[index];\n            removeFromOrgs(index);\n            emit OrgDeleted(org, req.owner);\n        }\n        emit OrgRequestApproved(req.reqType, req.name, req.owner);\n    }\n\n    function requestReject(bytes20 id) public onlyOwner {\n        uint256 index = findIndexFromReqs(id);\n        OrgRequest memory req = _reqs[index];\n        removeFromReqs(index);\n        emit OrgRequestRejected(req.reqType, req.name, req.owner);\n    }\n}\n",
  "sourcePath": "/Users/bragcat/Code/NIDChain/contracts/NIDAdmin.sol",
  "compiler": {
    "name": "solc",
    "version": "0.5.16+commit.9c3226ce.Emscripten.clang"
  },
  "schemaVersion": "3.0.23",
  "updatedAt": "2020-05-27T09:54:57.629Z",
  "devdoc": {
    "methods": {
      "isOwner()": {
        "details": "Returns true if the caller is the current owner."
      },
      "owner()": {
        "details": "Returns the address of the current owner."
      },
      "renounceOwnership()": {
        "details": "Leaves the contract without owner. It will not be possible to call `onlyOwner` functions anymore. Can only be called by the current owner.     * NOTE: Renouncing ownership will leave the contract without an owner, thereby removing any functionality that is only available to the owner."
      },
      "transferOwnership(address)": {
        "details": "Transfers ownership of the contract to a new account (`newOwner`). Can only be called by the current owner."
      }
    }
  },
  "userdoc": {
    "methods": {}
  }
}