{
  "contractName": "NIDAdmin",
  "abi": [
    {
      "inputs": [],
      "payable": false,
      "stateMutability": "nonpayable",
      "type": "constructor"
    },
    {
      "anonymous": false,
      "inputs": [
        {
          "indexed": true,
          "internalType": "uint256",
          "name": "index",
          "type": "uint256"
        },
        {
          "indexed": true,
          "internalType": "string",
          "name": "name",
          "type": "string"
        },
        {
          "indexed": false,
          "internalType": "uint256",
          "name": "timestamp",
          "type": "uint256"
        }
      ],
      "name": "ApplicationApproved",
      "type": "event"
    },
    {
      "anonymous": false,
      "inputs": [
        {
          "indexed": true,
          "internalType": "uint256",
          "name": "index",
          "type": "uint256"
        },
        {
          "indexed": true,
          "internalType": "string",
          "name": "name",
          "type": "string"
        },
        {
          "indexed": false,
          "internalType": "uint256",
          "name": "timestamp",
          "type": "uint256"
        }
      ],
      "name": "ApplicationRejected",
      "type": "event"
    },
    {
      "anonymous": false,
      "inputs": [
        {
          "indexed": true,
          "internalType": "uint256",
          "name": "index",
          "type": "uint256"
        },
        {
          "indexed": true,
          "internalType": "string",
          "name": "name",
          "type": "string"
        },
        {
          "indexed": false,
          "internalType": "uint256",
          "name": "timestamp",
          "type": "uint256"
        }
      ],
      "name": "ApplicationWithdrawed",
      "type": "event"
    },
    {
      "anonymous": false,
      "inputs": [
        {
          "indexed": true,
          "internalType": "uint256",
          "name": "index",
          "type": "uint256"
        },
        {
          "indexed": true,
          "internalType": "string",
          "name": "name",
          "type": "string"
        },
        {
          "indexed": false,
          "internalType": "uint256",
          "name": "timestamp",
          "type": "uint256"
        }
      ],
      "name": "OrganizationApplied",
      "type": "event"
    },
    {
      "anonymous": false,
      "inputs": [
        {
          "indexed": true,
          "internalType": "uint256",
          "name": "index",
          "type": "uint256"
        },
        {
          "indexed": true,
          "internalType": "string",
          "name": "name",
          "type": "string"
        },
        {
          "indexed": false,
          "internalType": "uint256",
          "name": "timestamp",
          "type": "uint256"
        }
      ],
      "name": "OrganizationDeleted",
      "type": "event"
    },
    {
      "anonymous": false,
      "inputs": [
        {
          "indexed": true,
          "internalType": "address",
          "name": "previousOwner",
          "type": "address"
        },
        {
          "indexed": true,
          "internalType": "address",
          "name": "newOwner",
          "type": "address"
        }
      ],
      "name": "OwnershipTransferred",
      "type": "event"
    },
    {
      "constant": true,
      "inputs": [],
      "name": "isOwner",
      "outputs": [
        {
          "internalType": "bool",
          "name": "",
          "type": "bool"
        }
      ],
      "payable": false,
      "stateMutability": "view",
      "type": "function"
    },
    {
      "constant": true,
      "inputs": [],
      "name": "owner",
      "outputs": [
        {
          "internalType": "address",
          "name": "",
          "type": "address"
        }
      ],
      "payable": false,
      "stateMutability": "view",
      "type": "function"
    },
    {
      "constant": false,
      "inputs": [],
      "name": "renounceOwnership",
      "outputs": [],
      "payable": false,
      "stateMutability": "nonpayable",
      "type": "function"
    },
    {
      "constant": false,
      "inputs": [
        {
          "internalType": "address",
          "name": "newOwner",
          "type": "address"
        }
      ],
      "name": "transferOwnership",
      "outputs": [],
      "payable": false,
      "stateMutability": "nonpayable",
      "type": "function"
    },
    {
      "constant": false,
      "inputs": [
        {
          "internalType": "string",
          "name": "name",
          "type": "string"
        }
      ],
      "name": "applyNIDOrganization",
      "outputs": [],
      "payable": false,
      "stateMutability": "nonpayable",
      "type": "function"
    },
    {
      "constant": false,
      "inputs": [
        {
          "internalType": "uint256",
          "name": "index",
          "type": "uint256"
        }
      ],
      "name": "withdrawNIDOrganizationApplication",
      "outputs": [],
      "payable": false,
      "stateMutability": "nonpayable",
      "type": "function"
    },
    {
      "constant": false,
      "inputs": [
        {
          "internalType": "uint256",
          "name": "index",
          "type": "uint256"
        }
      ],
      "name": "approveNIDOrganizationApplication",
      "outputs": [],
      "payable": false,
      "stateMutability": "nonpayable",
      "type": "function"
    },
    {
      "constant": false,
      "inputs": [
        {
          "internalType": "uint256",
          "name": "index",
          "type": "uint256"
        }
      ],
      "name": "rejectNIDOrganizationApplication",
      "outputs": [],
      "payable": false,
      "stateMutability": "nonpayable",
      "type": "function"
    },
    {
      "constant": false,
      "inputs": [
        {
          "internalType": "uint256",
          "name": "index",
          "type": "uint256"
        }
      ],
      "name": "deleteNIDOrganization",
      "outputs": [],
      "payable": false,
      "stateMutability": "nonpayable",
      "type": "function"
    },
    {
      "constant": true,
      "inputs": [],
      "name": "getApplicationCount",
      "outputs": [
        {
          "internalType": "uint256",
          "name": "",
          "type": "uint256"
        }
      ],
      "payable": false,
      "stateMutability": "view",
      "type": "function"
    },
    {
      "constant": true,
      "inputs": [],
      "name": "getOrganizationCount",
      "outputs": [
        {
          "internalType": "uint256",
          "name": "",
          "type": "uint256"
        }
      ],
      "payable": false,
      "stateMutability": "view",
      "type": "function"
    }
  ],
  "bytecode": "0x608060405234801561001057600080fd5b5061001f6100df60201b60201c565b6000806101000a81548173ffffffffffffffffffffffffffffffffffffffff021916908373ffffffffffffffffffffffffffffffffffffffff1602179055506000809054906101000a900473ffffffffffffffffffffffffffffffffffffffff1673ffffffffffffffffffffffffffffffffffffffff16600073ffffffffffffffffffffffffffffffffffffffff167f8be0079c531659141344cd1fd0a4f28419497f9722a3daafe3b4186f6b6457e060405160405180910390a36100e7565b600033905090565b612a08806100f66000396000f3fe60806040523480156200001157600080fd5b5060043610620000b85760003560e01c8063715018a6116200007b578063715018a61462000190578063796981d4146200019c5780638da5cb5b146200025d5780638f32d59b14620002a9578063cb16d04914620002cd578063f2fde38b14620002fe57620000b8565b80633f61764414620000bd5780635734e5e314620000ee57806358a6f4ca146200010e57806362503217146200012e5780636e4a7f01146200015f575b600080fd5b620000ec60048036036020811015620000d557600080fd5b810190808035906020019092919050505062000345565b005b620000f86200049a565b6040518082815260200191505060405180910390f35b62000118620004a7565b6040518082815260200191505060405180910390f35b6200015d600480360360208110156200014657600080fd5b8101908080359060200190929190505050620004b4565b005b6200018e600480360360208110156200017757600080fd5b810190808035906020019092919050505062000771565b005b6200019a62000a94565b005b6200025b60048036036020811015620001b457600080fd5b8101908080359060200190640100000000811115620001d257600080fd5b820183602082011115620001e557600080fd5b803590602001918460018302840111640100000000831117156200020857600080fd5b91908080601f016020809104026020016040519081016040528093929190818152602001838380828437600081840152601f19601f82011690508083019250505050505050919291929050505062000bd0565b005b6200026762000db3565b604051808273ffffffffffffffffffffffffffffffffffffffff1673ffffffffffffffffffffffffffffffffffffffff16815260200191505060405180910390f35b620002b362000ddc565b604051808215151515815260200191505060405180910390f35b620002fc60048036036020811015620002e557600080fd5b810190808035906020019092919050505062000e3c565b005b62000343600480360360208110156200031657600080fd5b81019080803573ffffffffffffffffffffffffffffffffffffffff169060200190929190505050620010f9565b005b6000600182815481106200035557fe5b9060005260206000200160009054906101000a900473ffffffffffffffffffffffffffffffffffffffff1690503373ffffffffffffffffffffffffffffffffffffffff168173ffffffffffffffffffffffffffffffffffffffff16638da5cb5b6040518163ffffffff1660e01b815260040160206040518083038186803b158015620003e057600080fd5b505afa158015620003f5573d6000803e3d6000fd5b505050506040513d60208110156200040c57600080fd5b810190808051906020019092919050505073ffffffffffffffffffffffffffffffffffffffff16146200048b576040517f08c379a000000000000000000000000000000000000000000000000000000000815260040180806020018281038252603e81526020018062002996603e913960400191505060405180910390fd5b620004968262001184565b5050565b6000600280549050905090565b6000600180549050905090565b620004be62000ddc565b62000531576040517f08c379a00000000000000000000000000000000000000000000000000000000081526004018080602001828103825260208152602001807f4f776e61626c653a2063616c6c6572206973206e6f7420746865206f776e657281525060200191505060405180910390fd5b60018054905081106200054357600080fd5b6060600182815481106200055357fe5b9060005260206000200160009054906101000a900473ffffffffffffffffffffffffffffffffffffffff1673ffffffffffffffffffffffffffffffffffffffff166306fdde036040518163ffffffff1660e01b815260040160006040518083038186803b158015620005c457600080fd5b505afa158015620005d9573d6000803e3d6000fd5b505050506040513d6000823e3d601f19601f8201168201806040525060208110156200060457600080fd5b81019080805160405193929190846401000000008211156200062557600080fd5b838201915060208201858111156200063c57600080fd5b82518660018202830111640100000000821117156200065a57600080fd5b8083526020830192505050908051906020019080838360005b838110156200069057808201518184015260208101905062000673565b50505050905090810190601f168015620006be5780820380516001836020036101000a031916815260200191505b506040525050509050620006d28262001184565b806040518082805190602001908083835b60208310620007085780518252602082019150602081019050602083039250620006e3565b6001836020036101000a0380198251168184511680821785525050505050509050019150506040518091039020827fe446a18c2dd7e8323ab30cba269ad8c50ab30706ee1cd0307d9e8a79dca11560426040518082815260200191505060405180910390a35050565b6200077b62000ddc565b620007ee576040517f08c379a00000000000000000000000000000000000000000000000000000000081526004018080602001828103825260208152602001807f4f776e61626c653a2063616c6c6572206973206e6f7420746865206f776e657281525060200191505060405180910390fd5b60018054905081106200080057600080fd5b6000600182815481106200081057fe5b9060005260206000200160009054906101000a900473ffffffffffffffffffffffffffffffffffffffff16905060028190806001815401808255809150509060018203906000526020600020016000909192909190916101000a81548173ffffffffffffffffffffffffffffffffffffffff021916908373ffffffffffffffffffffffffffffffffffffffff16021790555050620008ae8262001184565b8073ffffffffffffffffffffffffffffffffffffffff166306fdde036040518163ffffffff1660e01b815260040160006040518083038186803b158015620008f557600080fd5b505afa1580156200090a573d6000803e3d6000fd5b505050506040513d6000823e3d601f19601f8201168201806040525060208110156200093557600080fd5b81019080805160405193929190846401000000008211156200095657600080fd5b838201915060208201858111156200096d57600080fd5b82518660018202830111640100000000821117156200098b57600080fd5b8083526020830192505050908051906020019080838360005b83811015620009c1578082015181840152602081019050620009a4565b50505050905090810190601f168015620009ef5780820380516001836020036101000a031916815260200191505b506040525050506040518082805190602001908083835b6020831062000a2b578051825260208201915060208101905060208303925062000a06565b6001836020036101000a0380198251168184511680821785525050505050509050019150506040518091039020827f8badc4a114a48d013099f35f36c9e04cb0aa8544a9bfe88983c3fac80123443c426040518082815260200191505060405180910390a35050565b62000a9e62000ddc565b62000b11576040517f08c379a00000000000000000000000000000000000000000000000000000000081526004018080602001828103825260208152602001807f4f776e61626c653a2063616c6c6572206973206e6f7420746865206f776e657281525060200191505060405180910390fd5b600073ffffffffffffffffffffffffffffffffffffffff166000809054906101000a900473ffffffffffffffffffffffffffffffffffffffff1673ffffffffffffffffffffffffffffffffffffffff167f8be0079c531659141344cd1fd0a4f28419497f9722a3daafe3b4186f6b6457e060405160405180910390a360008060006101000a81548173ffffffffffffffffffffffffffffffffffffffff021916908373ffffffffffffffffffffffffffffffffffffffff160217905550565b6000813360405162000be290620014f4565b80806020018373ffffffffffffffffffffffffffffffffffffffff1673ffffffffffffffffffffffffffffffffffffffff168152602001828103825284818151815260200191508051906020019080838360005b8381101562000c5357808201518184015260208101905062000c36565b50505050905090810190601f16801562000c815780820380516001836020036101000a031916815260200191505b509350505050604051809103906000f08015801562000ca4573d6000803e3d6000fd5b50905060018190806001815401808255809150509060018203906000526020600020016000909192909190916101000a81548173ffffffffffffffffffffffffffffffffffffffff021916908373ffffffffffffffffffffffffffffffffffffffff16021790555050816040518082805190602001908083835b6020831062000d43578051825260208201915060208101905060208303925062000d1e565b6001836020036101000a038019825116818451168082178552505050505050905001915050604051809103902060018080549050037fe9e186eb6e22e624c02f8d5162b409953fc9d3dfd7286dc38962a80198b00cc5426040518082815260200191505060405180910390a35050565b60008060009054906101000a900473ffffffffffffffffffffffffffffffffffffffff16905090565b60008060009054906101000a900473ffffffffffffffffffffffffffffffffffffffff1673ffffffffffffffffffffffffffffffffffffffff1662000e2062001293565b73ffffffffffffffffffffffffffffffffffffffff1614905090565b62000e4662000ddc565b62000eb9576040517f08c379a00000000000000000000000000000000000000000000000000000000081526004018080602001828103825260208152602001807f4f776e61626c653a2063616c6c6572206973206e6f7420746865206f776e657281525060200191505060405180910390fd5b600280549050811062000ecb57600080fd5b60606001828154811062000edb57fe5b9060005260206000200160009054906101000a900473ffffffffffffffffffffffffffffffffffffffff1673ffffffffffffffffffffffffffffffffffffffff166306fdde036040518163ffffffff1660e01b815260040160006040518083038186803b15801562000f4c57600080fd5b505afa15801562000f61573d6000803e3d6000fd5b505050506040513d6000823e3d601f19601f82011682018060405250602081101562000f8c57600080fd5b810190808051604051939291908464010000000082111562000fad57600080fd5b8382019150602082018581111562000fc457600080fd5b825186600182028301116401000000008211171562000fe257600080fd5b8083526020830192505050908051906020019080838360005b838110156200101857808201518184015260208101905062000ffb565b50505050905090810190601f168015620010465780820380516001836020036101000a031916815260200191505b5060405250505090506200105a826200129b565b806040518082805190602001908083835b602083106200109057805182526020820191506020810190506020830392506200106b565b6001836020036101000a0380198251168184511680821785525050505050509050019150506040518091039020827f1da6ee1db5d66b2ff90068d14643add2791d130de154d496080ec438751b1db8426040518082815260200191505060405180910390a35050565b6200110362000ddc565b62001176576040517f08c379a00000000000000000000000000000000000000000000000000000000081526004018080602001828103825260208152602001807f4f776e61626c653a2063616c6c6572206973206e6f7420746865206f776e657281525060200191505060405180910390fd5b6200118181620013ae565b50565b60008190505b60018080549050038110156200123757600180820181548110620011aa57fe5b9060005260206000200160009054906101000a900473ffffffffffffffffffffffffffffffffffffffff1660018281548110620011e357fe5b9060005260206000200160006101000a81548173ffffffffffffffffffffffffffffffffffffffff021916908373ffffffffffffffffffffffffffffffffffffffff1602179055508060010190506200118a565b50600180808054905003815481106200124c57fe5b9060005260206000200160006101000a81549073ffffffffffffffffffffffffffffffffffffffff0219169055600180546001900390816200128f919062001502565b5050565b600033905090565b60008190505b600160028054905003811015620013505760026001820181548110620012c357fe5b9060005260206000200160009054906101000a900473ffffffffffffffffffffffffffffffffffffffff1660028281548110620012fc57fe5b9060005260206000200160006101000a81548173ffffffffffffffffffffffffffffffffffffffff021916908373ffffffffffffffffffffffffffffffffffffffff160217905550806001019050620012a1565b506002600160028054905003815481106200136757fe5b9060005260206000200160006101000a81549073ffffffffffffffffffffffffffffffffffffffff021916905560028054600190039081620013aa919062001502565b5050565b600073ffffffffffffffffffffffffffffffffffffffff168173ffffffffffffffffffffffffffffffffffffffff16141562001436576040517f08c379a0000000000000000000000000000000000000000000000000000000008152600401808060200182810382526026815260200180620029706026913960400191505060405180910390fd5b8073ffffffffffffffffffffffffffffffffffffffff166000809054906101000a900473ffffffffffffffffffffffffffffffffffffffff1673ffffffffffffffffffffffffffffffffffffffff167f8be0079c531659141344cd1fd0a4f28419497f9722a3daafe3b4186f6b6457e060405160405180910390a3806000806101000a81548173ffffffffffffffffffffffffffffffffffffffff021916908373ffffffffffffffffffffffffffffffffffffffff16021790555050565b611416806200155a83390190565b8154818355818111156200152c578183600052602060002091820191016200152b919062001531565b5b505050565b6200155691905b808211156200155257600081600090555060010162001538565b5090565b9056fe60806040523480156200001157600080fd5b50604051620014163803806200141683398181016040526200003791908101906200038f565b620000476200013460201b60201c565b6000806101000a81548173ffffffffffffffffffffffffffffffffffffffff021916908373ffffffffffffffffffffffffffffffffffffffff1602179055506000809054906101000a900473ffffffffffffffffffffffffffffffffffffffff1673ffffffffffffffffffffffffffffffffffffffff16600073ffffffffffffffffffffffffffffffffffffffff167f8be0079c531659141344cd1fd0a4f28419497f9722a3daafe3b4186f6b6457e060405160405180910390a381600190805190602001906200011a9291906200026d565b506200012c816200013c60201b60201c565b505062000563565b600033905090565b600073ffffffffffffffffffffffffffffffffffffffff168173ffffffffffffffffffffffffffffffffffffffff161415620001af576040517f08c379a0000000000000000000000000000000000000000000000000000000008152600401620001a69062000451565b60405180910390fd5b8073ffffffffffffffffffffffffffffffffffffffff166000809054906101000a900473ffffffffffffffffffffffffffffffffffffffff1673ffffffffffffffffffffffffffffffffffffffff167f8be0079c531659141344cd1fd0a4f28419497f9722a3daafe3b4186f6b6457e060405160405180910390a3806000806101000a81548173ffffffffffffffffffffffffffffffffffffffff021916908373ffffffffffffffffffffffffffffffffffffffff16021790555050565b828054600181600116156101000203166002900490600052602060002090601f016020900481019282601f10620002b057805160ff1916838001178555620002e1565b82800160010185558215620002e1579182015b82811115620002e0578251825591602001919060010190620002c3565b5b509050620002f09190620002f4565b5090565b6200031991905b8082111562000315576000816000905550600101620002fb565b5090565b90565b6000815190506200032d8162000549565b92915050565b600082601f8301126200034557600080fd5b81516200035c6200035682620004a1565b62000473565b915080825260208301602083018583830111156200037957600080fd5b6200038683828462000513565b50505092915050565b60008060408385031215620003a357600080fd5b600083015167ffffffffffffffff811115620003be57600080fd5b620003cc8582860162000333565b9250506020620003df858286016200031c565b9150509250929050565b6000620003f8602683620004ce565b91507f4f776e61626c653a206e6577206f776e657220697320746865207a65726f206160008301527f64647265737300000000000000000000000000000000000000000000000000006020830152604082019050919050565b600060208201905081810360008301526200046c81620003e9565b9050919050565b6000604051905081810181811067ffffffffffffffff821117156200049757600080fd5b8060405250919050565b600067ffffffffffffffff821115620004b957600080fd5b601f19601f8301169050602081019050919050565b600082825260208201905092915050565b6000620004ec82620004f3565b9050919050565b600073ffffffffffffffffffffffffffffffffffffffff82169050919050565b60005b838110156200053357808201518184015260208101905062000516565b8381111562000543576000848401525b50505050565b6200055481620004df565b81146200056057600080fd5b50565b610ea380620005736000396000f3fe608060405234801561001057600080fd5b50600436106100885760003560e01c80638f32d59b1161005b5780638f32d59b146100f1578063b29dc0441461010f578063d052d9961461012b578063f2fde38b1461014957610088565b806306fdde031461008d5780633cf04bdb146100ab578063715018a6146100c95780638da5cb5b146100d3575b600080fd5b610095610165565b6040516100a29190610c30565b60405180910390f35b6100b3610203565b6040516100c09190610c52565b60405180910390f35b6100d16102c9565b005b6100db6103cf565b6040516100e89190610bd8565b60405180910390f35b6100f96103f8565b6040516101069190610c15565b60405180910390f35b61012960048036036101249190810190610944565b610456565b005b61013361055f565b6040516101409190610bf3565b60405180910390f35b610163600480360361015e919081019061091b565b61066a565b005b60018054600181600116156101000203166002900480601f0160208091040260200160405190810160405280929190818152602001828054600181600116156101000203166002900480156101fb5780601f106101d0576101008083540402835291602001916101fb565b820191906000526020600020905b8154815290600101906020018083116101de57829003601f168201915b505050505081565b606060026001600280549050038154811061021a57fe5b90600052602060002090600202016000018054600181600116156101000203166002900480601f0160208091040260200160405190810160405280929190818152602001828054600181600116156101000203166002900480156102bf5780601f10610294576101008083540402835291602001916102bf565b820191906000526020600020905b8154815290600101906020018083116102a257829003601f168201915b5050505050905090565b6102d16103f8565b610310576040517f08c379a000000000000000000000000000000000000000000000000000000000815260040161030790610cc4565b60405180910390fd5b600073ffffffffffffffffffffffffffffffffffffffff166000809054906101000a900473ffffffffffffffffffffffffffffffffffffffff1673ffffffffffffffffffffffffffffffffffffffff167f8be0079c531659141344cd1fd0a4f28419497f9722a3daafe3b4186f6b6457e060405160405180910390a360008060006101000a81548173ffffffffffffffffffffffffffffffffffffffff021916908373ffffffffffffffffffffffffffffffffffffffff160217905550565b60008060009054906101000a900473ffffffffffffffffffffffffffffffffffffffff16905090565b60008060009054906101000a900473ffffffffffffffffffffffffffffffffffffffff1673ffffffffffffffffffffffffffffffffffffffff1661043a6106bd565b73ffffffffffffffffffffffffffffffffffffffff1614905090565b61045e6103f8565b61049d576040517f08c379a000000000000000000000000000000000000000000000000000000000815260040161049490610cc4565b60405180910390fd5b6104a56107f3565b604051806040016040528083815260200142815250905060028190806001815401808255809150509060018203906000526020600020906002020160009091929091909150600082015181600001908051906020019061050692919061080d565b50602082015181600101555050506002805490507f6fb1bcacba5a0b909ff331ecd69976765812afb925cd652b0fd5ecd325a23d3f82600001518360200151604051610553929190610c74565b60405180910390a25050565b60606002805480602002602001604051908101604052809291908181526020016000905b828210156106615783829060005260206000209060020201604051806040016040529081600082018054600181600116156101000203166002900480601f01602080910402602001604051908101604052809291908181526020018280546001816001161561010002031660029004801561063f5780601f106106145761010080835404028352916020019161063f565b820191906000526020600020905b81548152906001019060200180831161062257829003601f168201915b5050505050815260200160018201548152505081526020019060010190610583565b50505050905090565b6106726103f8565b6106b1576040517f08c379a00000000000000000000000000000000000000000000000000000000081526004016106a890610cc4565b60405180910390fd5b6106ba816106c5565b50565b600033905090565b600073ffffffffffffffffffffffffffffffffffffffff168173ffffffffffffffffffffffffffffffffffffffff161415610735576040517f08c379a000000000000000000000000000000000000000000000000000000000815260040161072c90610ca4565b60405180910390fd5b8073ffffffffffffffffffffffffffffffffffffffff166000809054906101000a900473ffffffffffffffffffffffffffffffffffffffff1673ffffffffffffffffffffffffffffffffffffffff167f8be0079c531659141344cd1fd0a4f28419497f9722a3daafe3b4186f6b6457e060405160405180910390a3806000806101000a81548173ffffffffffffffffffffffffffffffffffffffff021916908373ffffffffffffffffffffffffffffffffffffffff16021790555050565b604051806040016040528060608152602001600081525090565b828054600181600116156101000203166002900490600052602060002090601f016020900481019282601f1061084e57805160ff191683800117855561087c565b8280016001018555821561087c579182015b8281111561087b578251825591602001919060010190610860565b5b509050610889919061088d565b5090565b6108af91905b808211156108ab576000816000905550600101610893565b5090565b90565b6000813590506108c181610e49565b92915050565b600082601f8301126108d857600080fd5b81356108eb6108e682610d11565b610ce4565b9150808252602083016020830185838301111561090757600080fd5b610912838284610df6565b50505092915050565b60006020828403121561092d57600080fd5b600061093b848285016108b2565b91505092915050565b60006020828403121561095657600080fd5b600082013567ffffffffffffffff81111561097057600080fd5b61097c848285016108c7565b91505092915050565b60006109918383610b7d565b905092915050565b6109a281610dae565b82525050565b60006109b382610d4d565b6109bd8185610d7b565b9350836020820285016109cf85610d3d565b8060005b85811015610a0b57848403895281516109ec8582610985565b94506109f783610d6e565b925060208a019950506001810190506109d3565b50829750879550505050505092915050565b610a2681610dc0565b82525050565b6000610a3782610d63565b610a418185610d9d565b9350610a51818560208601610e05565b610a5a81610e38565b840191505092915050565b6000610a7082610d58565b610a7a8185610d8c565b9350610a8a818560208601610e05565b610a9381610e38565b840191505092915050565b6000610aa982610d58565b610ab38185610d9d565b9350610ac3818560208601610e05565b610acc81610e38565b840191505092915050565b6000610ae4602683610d9d565b91507f4f776e61626c653a206e6577206f776e657220697320746865207a65726f206160008301527f64647265737300000000000000000000000000000000000000000000000000006020830152604082019050919050565b6000610b4a602083610d9d565b91507f4f776e61626c653a2063616c6c6572206973206e6f7420746865206f776e65726000830152602082019050919050565b60006040830160008301518482036000860152610b9a8282610a65565b9150506020830151610baf6020860182610bba565b508091505092915050565b610bc381610dec565b82525050565b610bd281610dec565b82525050565b6000602082019050610bed6000830184610999565b92915050565b60006020820190508181036000830152610c0d81846109a8565b905092915050565b6000602082019050610c2a6000830184610a1d565b92915050565b60006020820190508181036000830152610c4a8184610a9e565b905092915050565b60006020820190508181036000830152610c6c8184610a2c565b905092915050565b60006040820190508181036000830152610c8e8185610a9e565b9050610c9d6020830184610bc9565b9392505050565b60006020820190508181036000830152610cbd81610ad7565b9050919050565b60006020820190508181036000830152610cdd81610b3d565b9050919050565b6000604051905081810181811067ffffffffffffffff82111715610d0757600080fd5b8060405250919050565b600067ffffffffffffffff821115610d2857600080fd5b601f19601f8301169050602081019050919050565b6000819050602082019050919050565b600081519050919050565b600081519050919050565b600081519050919050565b6000602082019050919050565b600082825260208201905092915050565b600082825260208201905092915050565b600082825260208201905092915050565b6000610db982610dcc565b9050919050565b60008115159050919050565b600073ffffffffffffffffffffffffffffffffffffffff82169050919050565b6000819050919050565b82818337600083830152505050565b60005b83811015610e23578082015181840152602081019050610e08565b83811115610e32576000848401525b50505050565b6000601f19601f8301169050919050565b610e5281610dae565b8114610e5d57600080fd5b5056fea365627a7a72315820229f5357f6ef1d9d3615e34b1621f7352f5062357adad5cd5c6f1627edbce27b6c6578706572696d656e74616cf564736f6c634300051000404f776e61626c653a206e6577206f776e657220697320746865207a65726f20616464726573734f776e61626c653a206170706c69636174696f6e207769746864726177616c2063616e206f6e6c7920626520726571756573746564206279206f776e6572a265627a7a72315820819c66daba9d40cf37b4cc604c8c818972dd7d37139925840aae9738c5ac0c8a64736f6c63430005100032",
  "source": "pragma solidity >0.4.23 <0.7.0;\n\nimport \"./NIDOrganization.sol\";\nimport \"openzeppelin-solidity/contracts/ownership/Ownable.sol\";\n\ncontract NIDAdmin is Ownable {\n    NIDOrganization[] private _applications;\n    NIDOrganization[] private _organizations;\n\n    event OrganizationApplied(uint256 indexed index, string indexed name, uint256 timestamp);\n    event ApplicationWithdrawed(uint256 indexed index, string indexed name, uint256 timestamp);\n    event OrganizationDeleted(uint256 indexed index, string indexed name, uint256 timestamp);\n    event ApplicationApproved(uint256 indexed index, string indexed name, uint256 timestamp);\n    event ApplicationRejected(uint256 indexed index, string indexed name, uint256 timestamp);\n\n    constructor() public {\n\n    }\n\n    // used for each NID organization admin to apply for a new organization\n    function applyNIDOrganization(string memory name) public {\n        NIDOrganization org = new NIDOrganization(\n            name,\n            msg.sender\n        );\n        _applications.push(org);\n        emit OrganizationApplied(_applications.length - 1, name, block.timestamp);\n    }\n\n    // used for each NID organization admin to withdraw the application for a new organization\n    function withdrawNIDOrganizationApplication(uint256 index) public {\n        NIDOrganization org = _applications[index];\n        require(org.owner() == msg.sender, \"Ownable: application withdrawal can only be requested by owner\");\n        removeApplication(index);\n    }\n\n    // used for NID system admin to approve organization application\n    function approveNIDOrganizationApplication(uint256 index) public onlyOwner {\n        require(index < _applications.length);\n        NIDOrganization org = _applications[index];\n        _organizations.push(org);\n        removeApplication(index);\n        emit ApplicationApproved(index, org.name(), block.timestamp);\n    }\n\n    // used for NID system admin to reject organization application\n    function rejectNIDOrganizationApplication(uint256 index) public onlyOwner {\n        require(index < _applications.length);\n        string memory name = _applications[index].name();\n        removeApplication(index);\n        emit ApplicationRejected(index, name, block.timestamp);\n    }\n\n    // used for NID system admin to delete obsolete organizations\n    function deleteNIDOrganization(uint256 index) public onlyOwner{\n        require(index < _organizations.length);\n        string memory name = _applications[index].name();\n        removeOrganization(index);\n        emit OrganizationDeleted(index, name, block.timestamp);\n    }\n\n    function getApplicationCount() view public returns(uint256) {\n        return _applications.length;\n    }\n\n    function getOrganizationCount() view public returns(uint256) {\n        return _organizations.length;\n    }\n\n    function removeApplication(uint256 index) private {\n        for (uint256 i = index; i < _applications.length - 1; ++i) {\n            _applications[i] = _applications[i + 1];\n        }\n        delete _applications[_applications.length - 1];\n        --_applications.length;\n    }\n\n    function removeOrganization(uint256 index) private {\n        for (uint256 i = index; i < _organizations.length - 1; ++i) {\n            _organizations[i] = _organizations[i + 1];\n        }\n        delete _organizations[_organizations.length - 1];\n        --_organizations.length;\n    }\n}",
  "sourcePath": "/Users/bragcat/Code/NIDChain/contracts/NIDAdmin.sol",
  "compiler": {
    "name": "solc",
    "version": "0.5.16+commit.9c3226ce.Emscripten.clang"
  },
  "schemaVersion": "3.0.21",
  "updatedAt": "2020-02-06T03:49:02.797Z",
  "devdoc": {
    "methods": {
      "isOwner()": {
        "details": "Returns true if the caller is the current owner."
      },
      "owner()": {
        "details": "Returns the address of the current owner."
      },
      "renounceOwnership()": {
        "details": "Leaves the contract without owner. It will not be possible to call `onlyOwner` functions anymore. Can only be called by the current owner.     * NOTE: Renouncing ownership will leave the contract without an owner, thereby removing any functionality that is only available to the owner."
      },
      "transferOwnership(address)": {
        "details": "Transfers ownership of the contract to a new account (`newOwner`). Can only be called by the current owner."
      }
    }
  },
  "userdoc": {
    "methods": {}
  }
}