{
  "contractName": "NIDOrganization",
  "abi": [
    {
      "inputs": [
        {
          "internalType": "string",
          "name": "_name",
          "type": "string"
        },
        {
          "internalType": "address",
          "name": "_admin",
          "type": "address"
        }
      ],
      "payable": false,
      "stateMutability": "nonpayable",
      "type": "constructor"
    },
    {
      "anonymous": false,
      "inputs": [
        {
          "indexed": true,
          "internalType": "uint256",
          "name": "index",
          "type": "uint256"
        },
        {
          "indexed": false,
          "internalType": "string",
          "name": "key",
          "type": "string"
        },
        {
          "indexed": false,
          "internalType": "uint256",
          "name": "timestamp",
          "type": "uint256"
        }
      ],
      "name": "KeyUpdated",
      "type": "event"
    },
    {
      "anonymous": false,
      "inputs": [
        {
          "indexed": true,
          "internalType": "address",
          "name": "previousOwner",
          "type": "address"
        },
        {
          "indexed": true,
          "internalType": "address",
          "name": "newOwner",
          "type": "address"
        }
      ],
      "name": "OwnershipTransferred",
      "type": "event"
    },
    {
      "constant": true,
      "inputs": [],
      "name": "isOwner",
      "outputs": [
        {
          "internalType": "bool",
          "name": "",
          "type": "bool"
        }
      ],
      "payable": false,
      "stateMutability": "view",
      "type": "function"
    },
    {
      "constant": true,
      "inputs": [],
      "name": "name",
      "outputs": [
        {
          "internalType": "string",
          "name": "",
          "type": "string"
        }
      ],
      "payable": false,
      "stateMutability": "view",
      "type": "function"
    },
    {
      "constant": true,
      "inputs": [],
      "name": "owner",
      "outputs": [
        {
          "internalType": "address",
          "name": "",
          "type": "address"
        }
      ],
      "payable": false,
      "stateMutability": "view",
      "type": "function"
    },
    {
      "constant": false,
      "inputs": [],
      "name": "renounceOwnership",
      "outputs": [],
      "payable": false,
      "stateMutability": "nonpayable",
      "type": "function"
    },
    {
      "constant": false,
      "inputs": [
        {
          "internalType": "address",
          "name": "newOwner",
          "type": "address"
        }
      ],
      "name": "transferOwnership",
      "outputs": [],
      "payable": false,
      "stateMutability": "nonpayable",
      "type": "function"
    },
    {
      "constant": true,
      "inputs": [],
      "name": "getNewestKey",
      "outputs": [
        {
          "internalType": "string",
          "name": "",
          "type": "string"
        }
      ],
      "payable": false,
      "stateMutability": "view",
      "type": "function"
    },
    {
      "constant": true,
      "inputs": [],
      "name": "getKeyHistory",
      "outputs": [
        {
          "components": [
            {
              "internalType": "string",
              "name": "key",
              "type": "string"
            },
            {
              "internalType": "uint256",
              "name": "timestamp",
              "type": "uint256"
            }
          ],
          "internalType": "struct NIDOrganization.KeyLife[]",
          "name": "keyHistory",
          "type": "tuple[]"
        }
      ],
      "payable": false,
      "stateMutability": "view",
      "type": "function"
    },
    {
      "constant": false,
      "inputs": [
        {
          "internalType": "string",
          "name": "newKey",
          "type": "string"
        }
      ],
      "name": "updateKey",
      "outputs": [],
      "payable": false,
      "stateMutability": "nonpayable",
      "type": "function"
    }
  ],
  "bytecode": "0x60806040523480156200001157600080fd5b50604051620014163803806200141683398181016040526200003791908101906200038f565b620000476200013460201b60201c565b6000806101000a81548173ffffffffffffffffffffffffffffffffffffffff021916908373ffffffffffffffffffffffffffffffffffffffff1602179055506000809054906101000a900473ffffffffffffffffffffffffffffffffffffffff1673ffffffffffffffffffffffffffffffffffffffff16600073ffffffffffffffffffffffffffffffffffffffff167f8be0079c531659141344cd1fd0a4f28419497f9722a3daafe3b4186f6b6457e060405160405180910390a381600190805190602001906200011a9291906200026d565b506200012c816200013c60201b60201c565b505062000563565b600033905090565b600073ffffffffffffffffffffffffffffffffffffffff168173ffffffffffffffffffffffffffffffffffffffff161415620001af576040517f08c379a0000000000000000000000000000000000000000000000000000000008152600401620001a69062000451565b60405180910390fd5b8073ffffffffffffffffffffffffffffffffffffffff166000809054906101000a900473ffffffffffffffffffffffffffffffffffffffff1673ffffffffffffffffffffffffffffffffffffffff167f8be0079c531659141344cd1fd0a4f28419497f9722a3daafe3b4186f6b6457e060405160405180910390a3806000806101000a81548173ffffffffffffffffffffffffffffffffffffffff021916908373ffffffffffffffffffffffffffffffffffffffff16021790555050565b828054600181600116156101000203166002900490600052602060002090601f016020900481019282601f10620002b057805160ff1916838001178555620002e1565b82800160010185558215620002e1579182015b82811115620002e0578251825591602001919060010190620002c3565b5b509050620002f09190620002f4565b5090565b6200031991905b8082111562000315576000816000905550600101620002fb565b5090565b90565b6000815190506200032d8162000549565b92915050565b600082601f8301126200034557600080fd5b81516200035c6200035682620004a1565b62000473565b915080825260208301602083018583830111156200037957600080fd5b6200038683828462000513565b50505092915050565b60008060408385031215620003a357600080fd5b600083015167ffffffffffffffff811115620003be57600080fd5b620003cc8582860162000333565b9250506020620003df858286016200031c565b9150509250929050565b6000620003f8602683620004ce565b91507f4f776e61626c653a206e6577206f776e657220697320746865207a65726f206160008301527f64647265737300000000000000000000000000000000000000000000000000006020830152604082019050919050565b600060208201905081810360008301526200046c81620003e9565b9050919050565b6000604051905081810181811067ffffffffffffffff821117156200049757600080fd5b8060405250919050565b600067ffffffffffffffff821115620004b957600080fd5b601f19601f8301169050602081019050919050565b600082825260208201905092915050565b6000620004ec82620004f3565b9050919050565b600073ffffffffffffffffffffffffffffffffffffffff82169050919050565b60005b838110156200053357808201518184015260208101905062000516565b8381111562000543576000848401525b50505050565b6200055481620004df565b81146200056057600080fd5b50565b610ea380620005736000396000f3fe608060405234801561001057600080fd5b50600436106100885760003560e01c80638f32d59b1161005b5780638f32d59b146100f1578063b29dc0441461010f578063d052d9961461012b578063f2fde38b1461014957610088565b806306fdde031461008d5780633cf04bdb146100ab578063715018a6146100c95780638da5cb5b146100d3575b600080fd5b610095610165565b6040516100a29190610c30565b60405180910390f35b6100b3610203565b6040516100c09190610c52565b60405180910390f35b6100d16102c9565b005b6100db6103cf565b6040516100e89190610bd8565b60405180910390f35b6100f96103f8565b6040516101069190610c15565b60405180910390f35b61012960048036036101249190810190610944565b610456565b005b61013361055f565b6040516101409190610bf3565b60405180910390f35b610163600480360361015e919081019061091b565b61066a565b005b60018054600181600116156101000203166002900480601f0160208091040260200160405190810160405280929190818152602001828054600181600116156101000203166002900480156101fb5780601f106101d0576101008083540402835291602001916101fb565b820191906000526020600020905b8154815290600101906020018083116101de57829003601f168201915b505050505081565b606060026001600280549050038154811061021a57fe5b90600052602060002090600202016000018054600181600116156101000203166002900480601f0160208091040260200160405190810160405280929190818152602001828054600181600116156101000203166002900480156102bf5780601f10610294576101008083540402835291602001916102bf565b820191906000526020600020905b8154815290600101906020018083116102a257829003601f168201915b5050505050905090565b6102d16103f8565b610310576040517f08c379a000000000000000000000000000000000000000000000000000000000815260040161030790610cc4565b60405180910390fd5b600073ffffffffffffffffffffffffffffffffffffffff166000809054906101000a900473ffffffffffffffffffffffffffffffffffffffff1673ffffffffffffffffffffffffffffffffffffffff167f8be0079c531659141344cd1fd0a4f28419497f9722a3daafe3b4186f6b6457e060405160405180910390a360008060006101000a81548173ffffffffffffffffffffffffffffffffffffffff021916908373ffffffffffffffffffffffffffffffffffffffff160217905550565b60008060009054906101000a900473ffffffffffffffffffffffffffffffffffffffff16905090565b60008060009054906101000a900473ffffffffffffffffffffffffffffffffffffffff1673ffffffffffffffffffffffffffffffffffffffff1661043a6106bd565b73ffffffffffffffffffffffffffffffffffffffff1614905090565b61045e6103f8565b61049d576040517f08c379a000000000000000000000000000000000000000000000000000000000815260040161049490610cc4565b60405180910390fd5b6104a56107f3565b604051806040016040528083815260200142815250905060028190806001815401808255809150509060018203906000526020600020906002020160009091929091909150600082015181600001908051906020019061050692919061080d565b50602082015181600101555050506002805490507f6fb1bcacba5a0b909ff331ecd69976765812afb925cd652b0fd5ecd325a23d3f82600001518360200151604051610553929190610c74565b60405180910390a25050565b60606002805480602002602001604051908101604052809291908181526020016000905b828210156106615783829060005260206000209060020201604051806040016040529081600082018054600181600116156101000203166002900480601f01602080910402602001604051908101604052809291908181526020018280546001816001161561010002031660029004801561063f5780601f106106145761010080835404028352916020019161063f565b820191906000526020600020905b81548152906001019060200180831161062257829003601f168201915b5050505050815260200160018201548152505081526020019060010190610583565b50505050905090565b6106726103f8565b6106b1576040517f08c379a00000000000000000000000000000000000000000000000000000000081526004016106a890610cc4565b60405180910390fd5b6106ba816106c5565b50565b600033905090565b600073ffffffffffffffffffffffffffffffffffffffff168173ffffffffffffffffffffffffffffffffffffffff161415610735576040517f08c379a000000000000000000000000000000000000000000000000000000000815260040161072c90610ca4565b60405180910390fd5b8073ffffffffffffffffffffffffffffffffffffffff166000809054906101000a900473ffffffffffffffffffffffffffffffffffffffff1673ffffffffffffffffffffffffffffffffffffffff167f8be0079c531659141344cd1fd0a4f28419497f9722a3daafe3b4186f6b6457e060405160405180910390a3806000806101000a81548173ffffffffffffffffffffffffffffffffffffffff021916908373ffffffffffffffffffffffffffffffffffffffff16021790555050565b604051806040016040528060608152602001600081525090565b828054600181600116156101000203166002900490600052602060002090601f016020900481019282601f1061084e57805160ff191683800117855561087c565b8280016001018555821561087c579182015b8281111561087b578251825591602001919060010190610860565b5b509050610889919061088d565b5090565b6108af91905b808211156108ab576000816000905550600101610893565b5090565b90565b6000813590506108c181610e49565b92915050565b600082601f8301126108d857600080fd5b81356108eb6108e682610d11565b610ce4565b9150808252602083016020830185838301111561090757600080fd5b610912838284610df6565b50505092915050565b60006020828403121561092d57600080fd5b600061093b848285016108b2565b91505092915050565b60006020828403121561095657600080fd5b600082013567ffffffffffffffff81111561097057600080fd5b61097c848285016108c7565b91505092915050565b60006109918383610b7d565b905092915050565b6109a281610dae565b82525050565b60006109b382610d4d565b6109bd8185610d7b565b9350836020820285016109cf85610d3d565b8060005b85811015610a0b57848403895281516109ec8582610985565b94506109f783610d6e565b925060208a019950506001810190506109d3565b50829750879550505050505092915050565b610a2681610dc0565b82525050565b6000610a3782610d63565b610a418185610d9d565b9350610a51818560208601610e05565b610a5a81610e38565b840191505092915050565b6000610a7082610d58565b610a7a8185610d8c565b9350610a8a818560208601610e05565b610a9381610e38565b840191505092915050565b6000610aa982610d58565b610ab38185610d9d565b9350610ac3818560208601610e05565b610acc81610e38565b840191505092915050565b6000610ae4602683610d9d565b91507f4f776e61626c653a206e6577206f776e657220697320746865207a65726f206160008301527f64647265737300000000000000000000000000000000000000000000000000006020830152604082019050919050565b6000610b4a602083610d9d565b91507f4f776e61626c653a2063616c6c6572206973206e6f7420746865206f776e65726000830152602082019050919050565b60006040830160008301518482036000860152610b9a8282610a65565b9150506020830151610baf6020860182610bba565b508091505092915050565b610bc381610dec565b82525050565b610bd281610dec565b82525050565b6000602082019050610bed6000830184610999565b92915050565b60006020820190508181036000830152610c0d81846109a8565b905092915050565b6000602082019050610c2a6000830184610a1d565b92915050565b60006020820190508181036000830152610c4a8184610a9e565b905092915050565b60006020820190508181036000830152610c6c8184610a2c565b905092915050565b60006040820190508181036000830152610c8e8185610a9e565b9050610c9d6020830184610bc9565b9392505050565b60006020820190508181036000830152610cbd81610ad7565b9050919050565b60006020820190508181036000830152610cdd81610b3d565b9050919050565b6000604051905081810181811067ffffffffffffffff82111715610d0757600080fd5b8060405250919050565b600067ffffffffffffffff821115610d2857600080fd5b601f19601f8301169050602081019050919050565b6000819050602082019050919050565b600081519050919050565b600081519050919050565b600081519050919050565b6000602082019050919050565b600082825260208201905092915050565b600082825260208201905092915050565b600082825260208201905092915050565b6000610db982610dcc565b9050919050565b60008115159050919050565b600073ffffffffffffffffffffffffffffffffffffffff82169050919050565b6000819050919050565b82818337600083830152505050565b60005b83811015610e23578082015181840152602081019050610e08565b83811115610e32576000848401525b50505050565b6000601f19601f8301169050919050565b610e5281610dae565b8114610e5d57600080fd5b5056fea365627a7a72315820229f5357f6ef1d9d3615e34b1621f7352f5062357adad5cd5c6f1627edbce27b6c6578706572696d656e74616cf564736f6c63430005100040",
  "source": "pragma experimental ABIEncoderV2;\n\npragma solidity >0.4.23 <0.7.0;\n\nimport \"openzeppelin-solidity/contracts/ownership/Ownable.sol\";\n\ncontract NIDOrganization is Ownable {\n    // organization's name, example: Tsinghua University\n    string public name;\n\n    // history of organization's IDEA key used for encrypting NID and timestamp into IPv6 address\n    struct KeyLife {\n        string key;\n        uint256 timestamp;\n    }\n    KeyLife[] private _keyHistory;\n\n    event KeyUpdated(uint256 indexed index, string key, uint256 timestamp);\n\n    constructor(string memory _name, address _admin) public {\n        name = _name;\n        _transferOwnership(_admin);\n    }\n\n    function getNewestKey() view public returns(string memory) {\n        return _keyHistory[_keyHistory.length - 1].key;\n    }\n\n    function getKeyHistory() view public returns(KeyLife[] memory keyHistory) {\n       /* TODO: replace the current implementation with this block and serialize the array into one string to return\n        uint256 count = _keyHistory.length;\n        keys = new string[](count);\n        timestamps = new uint256[](count);\n        for (uint256 i = 0; i < count; ++i) {\n            keys.push(_keyHistory[i].key);\n            timestamps.push(_keyHistory[i].timestamp);\n        }\n        return (keys, timestamps);*/\n        return _keyHistory;\n    }\n\n    function updateKey(string memory newKey) public onlyOwner {\n        KeyLife memory newKeyLife = KeyLife({\n            key: newKey,\n            timestamp: block.timestamp\n            });\n        _keyHistory.push(newKeyLife);\n        emit KeyUpdated(_keyHistory.length, newKeyLife.key, newKeyLife.timestamp);\n    }\n}\n",
  "sourcePath": "/Users/bragcat/Code/NIDChain/contracts/NIDOrganization.sol",
  "compiler": {
    "name": "solc",
    "version": "0.5.16+commit.9c3226ce.Emscripten.clang"
  },
  "schemaVersion": "3.0.21",
  "updatedAt": "2020-02-05T11:00:26.041Z",
  "devdoc": {
    "methods": {
      "isOwner()": {
        "details": "Returns true if the caller is the current owner."
      },
      "owner()": {
        "details": "Returns the address of the current owner."
      },
      "renounceOwnership()": {
        "details": "Leaves the contract without owner. It will not be possible to call `onlyOwner` functions anymore. Can only be called by the current owner.     * NOTE: Renouncing ownership will leave the contract without an owner, thereby removing any functionality that is only available to the owner."
      },
      "transferOwnership(address)": {
        "details": "Transfers ownership of the contract to a new account (`newOwner`). Can only be called by the current owner."
      }
    }
  },
  "userdoc": {
    "methods": {}
  }
}